:020000021000EC
:10C0000000600020A5C301005DC301005FC3010003
:10C0100061C3010063C3010065C3010000000000AB
:10C0200000000000000000000000000067C30100E5
:10C0300069C30100000000006BC301006DC3010073
:10C04000DDF101006FC30100BDF3010049FA0100F9
:10C050006FC30100000000006DF201006FC301001A
:10C060006FC301006FC301006FC301006FC3010004
:10C070006FC301006FC301006FC301006FC30100F4
:10C080006FC30100D9D301006FC301006FC301006A
:10C090006FC301006FC30100F53D02006FC30100D3
:10C0A0006FC301006FC3010000000000000000002A
:10C0B0006FC301006FC3010000000000000000001A
:10C0C0000000000000000000000000000000000070
:10C0D0000000000000000000000000000000000060
:10C0E0000000000000000000000000000000000050
:10C0F0000000000000000000000000000000000040
:10C10000000000000000000000000000000000002F
:10C11000000000000000000000000000000000001F
:10C12000000000000000000000000000000000000F
:10C1300000000000000000000000000000000000FF
:10C1400000000000000000000000000000000000EF
:10C1500000000000000000000000000000000000DF
:10C1600000000000000000000000000000000000CF
:10C1700000000000000000000000000000000000BF
:10C1800000000000000000000000000000000000AF
:10C19000000000000000000000000000000000009F
:10C1A000000000000000000000000000000000008F
:10C1B000000000000000000000000000000000007F
:10C1C000000000000000000000000000000000006F
:10C1D000000000000000000000000000000000005F
:10C1E000000000000000000000000000000000004F
:10C1F000000000000000000000000000000000003F
:10C20000354936480A1A02D0072291438D463449EF
:10C2100034480A1A06D00722914381F30988022282
:10C2200082F3148830483149314A00F044F83148EB
:10C230003149324A00F03FF831483249324A00F081
:10C240003AF832483249334A00F035F83248334937
:10C25000334A00F030F833483349344A00F02BF8C1
:10C2600033483449344A00F026F83448344900222F
:10C2700000F02CF833483449002200F027F8334806
:10C280003349091A082902DB002202604160314A61
:10C2900090471F481F49884205D00268043003B404
:10C2A000904703BCF7E700208646EC4600200021BB
:10C2B000294A9047FEE7884207D0521A05D00378F2
:10C2C00001300B700131013AF9D17047884202D038
:10C2D00002700130FAE7704700600020005800202B
:10C2E0000060002000600020D08502009C1E00201D
:10C2F0006C1F0020ECC30100ECC301000C5E0200C7
:10C30000D08502009C1E00209C1E0020A45F02001D
:10C31000A45F0200A45F0200A45F0200A45F020009
:10C32000A45F0200A45F0200A45F0200CE850200A9
:10C33000A08602006C1F00206C1F00206C1F0020D4
:10C34000A82C0020A82C0020A82C0020A82C00201D
:10C35000A8340020BBC30100A1550200FEE7FEE7A0
:10C36000FEE7FEE7FEE7FEE7FEE7FEE7FEE7FEE7A5
:10C3700009480068094909680A280AD1002908D132
:10C38000074802686FF070031A404FF040031A43E9
:10C39000026000F009B80000300100103401001004
:10C3A000E40E0040FFF7E4BF0B484FF0070188435D
:10C3B00085460A488047FFF723BF094809490A4ACA
:10C3C000884207D0521A05D0037801300B70013132
:10C3D000013AF9D170470000006000208DEC0100A7
:0CC3E000905F0200881E00209C1E0020C0
:10C3EC00F0B595B01D46164608460C4602F044FBC7
:10C3FC001A9B0D93CDE9086500252B46082205A94B
:10C40C0020460A958DF82C500C9502F052FB079B98
:10C41C000293069B03939DF814308DF8115003F092
:10C42C000302012A1DD1BDF81420059DC3F3C203DC
:10C43C00C2F383168DF81030B20008230EA92046E3
:10C44C0002F037FBC5F3952508AB0093324602ABDF
:10C45C000EA9284600F09EFB204602F011FB15B0F9
:10C46C00F0BD022AF8D1BDF81650C3F3C203C5F3D0
:10C47C0089158DF810300827082D2E4628BF082660
:10C48C003B4632460EA9204602F013FBAD1B08AB0F
:10C49C0002AA31460EA8374400F0E0FB002DEBD188
:10C4AC00DAE7704707B5044B0093044A4023FFF7C3
:10C4BC0097FF03B05DF804FB1DC501006D1F002044
:10C4CC0030B5104D0FCD89B06C460FC495E80F00F8
:10C4DC0084E80F004FF0FF330622CDE90023CDE9AD
:10C4EC00023309484FF0EB7300226946069302F0C1
:10C4FC00F5FD08B100F00EFC044B00221A7009B0D7
:10C50C0030BD00BFA45F02009C1E00206C1F0020E9
:10C51C0038B50D4B0D4D002018700D4804782D5D6D
:10C52C00D2B21C4665B1043003F058FF08B100F0DC
:10C53C00F1FB084B1A7812B12378002BFBD038BDD5
:10C54C000C3003F065F9F1E7AD1F0020C426002084
:10C55C009C1E00206C1F002008B50848084A037870
:10C56C00D35C33B1043003F0A9FEBDE80840FFF7FB
:10C57C00A7BF0C3003F0E2F8F7E700BF9C1E0020C9
:10C58C00C4260020FFF79CBF08B5FFF7FBFF04484B
:10C59C00042100F06FFA034B01225A7108BD00BF51
:10C5AC00805F0200B01E00200378024613F00400E6
:10C5BC0006D003F00300012803D0022809D0012083
:10C5CC0070470B6812880233C2F3831213440B605A
:10C5DC0070470B685288023303EB92130B60EEE743
:10C5EC002DE9F04F87B000230446861C0DF107009F
:10C5FC000F4615468DF8073000F07CFD404A516817
:10C60C003960936803F580735B1A924602F21C47FB
:10C61C0002F5836902F21448B3421AD30020002DAC
:10C62C0069D004F00F039B0143F0050363F30F0083
:10C63C00DAF80430DAB203321E444AF822009DF8CC
:10C64C000700CAF8046000F079FD012007B0BDE8CE
:10C65C00F08F0121384601F04DFD484601F062FD96
:10C66C00404601F05FFDDAF808000290C0B20330DA
:10C67C000AEB800002A9FFF797FF029B30BBDAB2EE
:10C68C000AEB8202D16803919A1C0133DBB20AEBEC
:10C69C0083030292D3F80CB001F00303012B22D0D8
:10C6AC00022B15D08346404601F03FFD10B1029B92
:10C6BC00CAF808305946384601F01CFDDAF8083043
:10C6CC00DAF8042003F580739B1AA5E7D8B2CEE7FD
:10C6DC00BDF80E30C3F3891303334FEA1B4B02EB47
:10C6EC0093030293DFE7BDF80C30C3F383134FEAD7
:10C6FC001B4B1344F5E7A40544F0060098E700BF74
:10C70C0080200020064B074810B501221A7002F059
:10C71C006CF9044610B9044802F0FAF9204610BD31
:10C72C00802000209C5E0200F85F020030B50A4CAD
:10C73C0071B10A4A0A49121BD20800239A4201D14C
:10C74C00002030BD31F82350854202D00133F5E78B
:10C75C00034654F83300F4E7B05E0200805F020039
:10C76C009C1E0020094B013903EBC000032909D89A
:10C77C00DFE801F00A0204060420704700797047D4
:10C78C00407970470020704702207047B05E02006D
:10C79C00034BD3E90130C31A58425841704700BFCC
:10C7AC00802000202DE9F04186B0FFF7F1FF05460F
:10C7BC00002840F0E680744CC4F81804BFF34F8F87
:10C7CC00A3680293DBB2033304EB830002A9FFF7E7
:10C7DC00EBFE029B18B1D4F81824002A55D0DAB21B
:10C7EC00991C013304EB8202DBB204EB8303D268A5
:10C7FC00DB68049302F00303022B039202914FD1E6
:10C80C00BDF80E306148C3F38917502F3E4628BF40
:10C81C00502666F38F1306F10801ADF80E3002F0C6
:10C82C00FCF80546002800F0978002F025F900235B
:10C83C0003A90822284602F032F90299CB43DBB255
:10C84C000133C9B20331B6EB830F4FEA830804EB13
:10C85C00810122D908234246A6EB0806284602F09D
:10C86C001EF9F6B24A4908F108033246284602F08E
:10C87C0016F9029B033703EB97070297D4F8183489
:10C88C00002B41D1D4F8106451E062689A4299D8D7
:10C89C00A260284606B0BDE8F08108233246E5E7E1
:10C8AC00012B59D1BDF80C303848C3F3831106293C
:10C8BC0028BF062161F3891302318900ADF80C30D1
:10C8CC0002F0ABF80546002846D002F0D5F800235C
:10C8DC00082203A9284602F0E2F80026BDF80C2035
:10C8EC00C2F38312B300964203F10803C6D2029935
:10C8FC004A1CC9B20331029204EB8101042228467E
:10C90C0002F0CDF80136E9E7284602F0B9F8FFF756
:10C91C003FFF80F00105EDB2BBE7F3685B7923B113
:10C92C00336829461B6830469847F3681E68002E0A
:10C93C00F3D1284602F0A4F80DF107008DF807603A
:10C94C0000F0D8FBD4F818340BB9029BA3609DF807
:10C95C00070000F0F3FBDAE7D4F8104454B90D4BA0
:10C96C000D480E49C01AC008000440F0020000F047
:10C97C005DF8CCE7236820469B689847E3681C6801
:10C98C00ECE7002585E700BF802000209C5E0200BC
:10C99C008C200020B05E0200E05E0200E15F02002D
:10C9AC002DE9F34704460E46924601A9012218468A
:10C9BC009946FFF715FE1B4F10B3019D4FF0000871
:10C9CC00AA1CC84508EB020123D11748002101F02D
:10C9DC004AFB80F31000000440EA1440E4006B1C96
:10C9EC0004F03804DBB2EDB244F0010407EB83032E
:10C9FC00033544EA881444EA8624D86047F8254075
:10CA0C003B781BB1FFF7CEFE0028FBD102B0BDE88E
:10CA1C00F087C9B207EB81015AF82830CB6008F1D6
:10CA2C000108CEE7802000209C24002000231A4619
:10CA3C00FFF7B6BF07B50123019201AAFFF7B0FFBC
:10CA4C0003B05DF804FB07B5CDE9002302236A4669
:10CA5C00FFF7A6FF03B05DF804FB1FB5CDE901237A
:10CA6C00069B039301AA0323FFF79AFF05B05DF819
:10CA7C0004FB000030B50F49D1F810240346002008
:10CA8C00144634B9DC6820714AB9C1F810342260FC
:10CA9C0030BDE4682579854206D02468F1E7D26878
:10CAAC00116821601360F3E701300A28E8D14FF0D8
:10CABC00FF30EDE780200020084A38B50123D2F87A
:10CACC00104413701D4604B938BDE3685D712368CA
:10CADC0020465B689847E3681C68F4E780200020D8
:10CAEC0010B5037A052B0C460FD0437A23B1084AB4
:10CAFC000849204601F07CFB0749204601F078FBF1
:10CB0C002046BDE8104001F068BB002AF8D0F3E7DE
:10CB1C00046002006D810200367F0200C38873B589
:10CB2C0004460D4633B1144A00921449144A28465F
:10CB3C0001F05EFB217A05291CD0637A4BB1A088E9
:10CB4C00FFF710FE0F4B104953F82020284601F038
:10CB5C004FFB227A0D4BA08853F822600021FFF77F
:10CB6C00E5FD0B4903463246284602B0BDE870404D
:10CB7C0001F03EBB02B070BD046002001160020007
:10CB8C0009600200906002006D810200B460020036
:10CB9C00296002002DE9F04385B01F460C9D00234F
:10CBAC0095F80C902B7306460C4690462946384651
:10CBBC00FFF7B4FFB8F1060F09D8DFE808F004124C
:10CBCC00181F283340003146284601F011FB002283
:10CBDC0029463846FFF784FF85F80C9005B0BDE870
:10CBEC00F08322683146284601F002FBEFE7D4E9D6
:10CBFC0000233146284601F0FBFAE8E7A3680093CE
:10CC0C003146D4E90023284601F0F2FADFE7E36865
:10CC1C000193A36800933146D4E90023284601F020
:10CC2C00E7FAD4E723690293E3680193A3680093BE
:10CC3C003146D4E90023284601F0DAFAC7E76369E4
:10CC4C00039323690293E3680193A368009331462D
:10CC5C00D4E90023284601F0CBFAB8E708292DE9DE
:10CC6C00F74F80460E4617461C463CD800251B7BCA
:10CC7C002573214610460193FFF750FFDFF884A07F
:10CC8C00DFF884B0AE4231D918F805205946204659
:10CC9C0001F0AEFA0135082DF4D11949DFF86CA07A
:10CCAC00DFF86CB0204601F0A3FA4FF000094E45B6
:10CCBC0021D918F809507E2D03D8284608F0DCFF3E
:10CCCC0000B92E252A465946204601F091FA09F161
:10CCDC000109B9F1080FEAD1012221463846FFF7C4
:10CCEC00FFFE019B237303B0BDE8F08F5146204635
:10CCFC0001F07EFACEE75146204601F079FAE6E7DC
:10CD0C003D60020039600200336002003B600200AB
:10CD1C003F6002001FB50021039001AA44F20100FC
:10CD2C00CDE9011100F004F805B05DF804FB00003A
:10CD3C0010B572B6FFF7C0FEFFF734FD0028FBD12B
:10CD4C00104B114C1149E41AE408240444F001007E
:10CD5C00FFF76CFE0E4B1B68DB0700D500BE0D49C0
:10CD6C0044F00200FFF762FEBFF34F8F0A490B4BF2
:10CD7C00CA6802F4E0621343CB60BFF34F8F00BF6D
:10CD8C00FDE700BFB05E0200E05E0200D36002006F
:10CD9C00F0ED00E0DF60020000ED00E00400FA05B9
:10CDAC00D0E90223D1E90201994208BF90422CBF7D
:10CDBC00012000207047000008B50B4800F0EFFA86
:10CDCC000A4B0B49D3E900231218D1E9000143F1B6
:10CDDC0000038B4208BF824203D212F1807243F1EE
:10CDEC0000031046194608BDB81E0020402500203F
:10CDFC00B825002037B505460C460A4801A901F0B4
:10CE0C0066F860B10570446001A9064801F089F824
:10CE1C0018B1054800F0C8FA002003B030BD04205A
:10CE2C00FBE700BFA4250020B81E002038B5184B26
:10CE3C001B78044613B90025284638BD0028FAD0C3
:10CE4C00037F03F0FF05002BF5D0FFF7B5FFD4E906
:10CE5C000223994208BF904214D3236903B9237764
:10CE6C00D4E90530984721690029E4D0237F03F0E9
:10CE7C00FF05002BDFD0D4E90223521843F1000345
:10CE8C00C4E902230348214601F061FED4E700BF48
:10CE9C0048250020FC60020013B5114B114918689D
:10CEAC00019008231048582200F0FEFF044698B960
:10CEBC000E4A0F4801A900F063F9044660B90C480A
:10CECC00012100F04FFA01230A4A0948194600F0E3
:10CEDC00B1F9094B01221A70204602B010BD00BFF7
:10CEEC00F66002004C250020A425002069CF01002B
:10CEFC00B81E0020FFFF7F00482500203AB10368D0
:10CF0C005A614A1E51425141196100207047072055
:10CF1C00704738B5037F04460D4683B98261FFF72D
:10CF2C004BFF2369401941F10001C4E9020103B12F
:10CF3C00256121460020BDE83840FFF75BBF00208B
:10CF4C0038BD0023014603770120FFF753BF0000D3
:10CF5C00014800F024BA00BFB81E00202DE9F04FA4
:10CF6C0085B0804600F006FA40B15A4AD2E9003149
:10CF7C0013F1807341F10001C2E9003100214046F8
:10CF8C0000F007FA38B1544E336823B13068FFF71C
:10CF9C004DFF002333600121404600F0FAF920B127
:10CFAC00FFF70AFF4D4BC3E900014D484A4F4D4E68
:10CFBC00DFF8389103A900F0C4FF002845D1DFF851
:10CFCC002491454EDFF828A1484601F0D6FD336880
:10CFDC00002875D07BB13368D0E90201D3E9022374
:10CFEC00994208BF90422DD233681B7F1BB1316828
:10CFFC00484601F0ACFD484601F0B9FDD0E902B35A
:10D00C0007460193FFF7D8FE019BBBEB000463EBD3
:10D01C000105012C75F1000345DBB4F5350F40D348
:10D02C00FFF796FF304A02444FF496030021504616
:10D03C0000F020F900283ED1336813B9404600F0C7
:10D04C00F1F8376005B0BDE8F08F0378012B1DD0E7
:10D05C00022B09D14FF0000A304601F088FD002860
:10D06C0034D080F81CA0F7E73BB941680B7F23B99B
:10D07C0001230B77304601F06AFD03A9184800F034
:10D08C008BFF03A9164800F05CFF96E741683B68EC
:10D09C00994202D100233B60EFE7304601F070FD6E
:10D0AC00EBE7BA68C0E70021504600F068F9384653
:10D0BC00FFF7BCFE01E00D28F9D00023336083E7B5
:10D0CC00002BBFD1404600F0B1F8BBE7012389F833
:10D0DC000030D2E740250020C0250020B8250020D4
:10D0EC00A4250020FC600200FFFFB40048250020AE
:10D0FC00B81E002070B5EFF3108672B60C4A946817
:10D10C0001239CB993600B4B0B4DD3F88010294035
:10D11C001160C3F88050D3F8841051604FF0FF3287
:10D12C00C3F88420047006B962B670BD0370FAE7C8
:10D13C00C425002000E100E0FC06FFBD084B9A6806
:10D14C0010B55AB150B9EFF3108172B6054A1C688C
:10D15C0014605C685460986001B962B610BD00BF81
:10D16C00C425002000E100E00346405882B028B1FD
:10D17C0000225A505B580193019B012002B070476A
:10D18C00F8B5204B4479204D43F824201F4A204BFE
:10D19C0005EBC4049B1A2279DB081B0432B143F063
:10D1AC0002001C49FFF742FC0820F8BD02680C88FD
:10D1BC00C2F8084590F904608A7804795201002E6F
:10D1CC00D2B219DB14498F1987F800230122760992
:10D1DC0004F01F0402FA04F441F82640427905EBEE
:10D1EC00C201012445F832000C7143F003000B49D5
:10D1FC00FFF71CFC0020D8E7094904F00F040A557E
:10D20C00ECE700BFD8250020D0250020B05E02003E
:10D21C00F05E02000861020000E100E02A610200F9
:10D22C0014ED00E0036801221A60704703680122C4
:10D23C005A60704773B501F15005AD000068ADB28E
:10D24C004FF480348C400026C0F80843C0F84843A3
:10D25C00465101F5A8714559019522F07F42019D77
:10D26C0040F82120C0F844430BB1C0F8044302B08D
:10D27C0070BD00002DE9F74F0D4622F07F44026887
:10D28C004FF4803705F150068F408046B60002EB14
:10D29C008500C2F84873B6B2C2F80873D2F8041508
:10D2AC0099464FF0000BD0F84035C0F8401542F8C5
:10D2BC0006B05B1A9259009223F07F43012B009A1F
:10D2CC004FEA850A0CD1264B4FF4806043F00103E2
:10D2DC009847D8F8003043F806B09B590193019B4E
:10D2EC00D8F80010D1F80465C1F84473A31B23F0DF
:10D2FC007F43012B1CD11A4B05F5A875013443F063
:10D30C00010341F825404FF480609847D8F800306D
:10D31C00D3F804359E4209D1D8F800300020C3F868
:10D32C004473C3F8047303B0BDE8F08F0D20FAE723
:10D33C008A44C9F1FF13CAF84045D1F80405221AF2
:10D34C00013A22F07F4203F57F439342EED3002A49
:10D35C00E2D10134CAF84045D1F804359842DAE7F5
:10D36C004061020003680222C3F8442309B1C3F8E8
:10D37C000423704700684FF48271FFF7F5BE4FF439
:10D38C00803303FA01F10368C3F84813C3F8081398
:10D39C00704750318900006889B2FFF7E5BE036819
:10D3AC00D3F804057047000090F90430002B09DB1A
:10D3BC005A09012103F01F0301FA03F34032024919
:10D3CC0041F82230704700BF00E100E0024B034AF5
:10D3DC001B681068184700BFD8250020D0250020F6
:10D3EC0070B5064E0546002456F8043B0BB1284692
:10D3FC0098470134042CF7D170BD00BFE8250020FC
:10D40C00033080B240F2FE33984230B51FD8134B34
:10D41C001A783AB91C895D892C440444A4B2B4F539
:10D42C00806F0AD91A7DAAB99A8BDC8B22440244EC
:10D43C0092B2B2F5806F0DD801220A8014461422E4
:10D44C0002FB04335A8910445881002030BD48F245
:10D45C000860FBE748F20660F8E700BF1C260020D6
:10D46C000B4A0C4B5188142000FB0131CB6833B9AB
:10D47C000420496810700122074801F01DB90749C2
:10D48C000523137002238B80012209680023F3E724
:10D49C00002600201C260020881E00205826002074
:10D4AC0007B5002305490093054A09680548082378
:10D4BC0001F06CF803B05DF804FB00BF58260020A7
:10D4CC0054610200881E002007B50023014600931A
:10D4DC00034A0448082301F059F803B05DF804FB33
:10D4EC004C610200881E002013B500230C460093EB
:10D4FC000146084A0848042301F048F838B907499E
:10D50C00142303FB04140123237402B010BD48F24E
:10D51C000D60FAE748610200881E00201C260020DE
:10D52C0037B50A480A4B42689C881968538803250A
:10D53C00033305709BB2002000909B0001EB84012B
:10D54C00044801F023F803B030BD00BF00260020D2
:10D55C0058260020881E002010B50146044800F013
:10D56C00B6FC1C220446002108F0E7FB204610BD47
:10D57C00442600204388033300EB830399420BD3EA
:10D58C0082884FF6FF739A4208D0038833B18068C3
:10D59C00431C584258417047022070470120704785
:10D5AC0038B5144B14220D4602FB00302B6844682E
:10D5BC0004F58051A3B15C88033403EB84048C42E2
:10D5CC0015D22368013312D02046FFF7D3FF012870
:10D5DC0008D002280BD00028F1D12C60012038BDD6
:10D5EC000834ECE76388033304EB8304E7E700209B
:10D5FC00F5E700BF1C260020426873B504460D46B3
:10D60C006AB3244BD9688A4229D31B699A4226D81B
:10D61C0012F0030323D120490089098988421ED1C5
:10D62C002068916888421AD11C494868824203D903
:10D63C0000F5805082420DD389698A420CD901F5DC
:10D64C0080518A4208D201222A80B3FA83F0400921
:10D65C0002B070BD1A46F7E748F20963F5E70023FC
:10D66C002B801E460196288801A9FFF799FF30B937
:10D67C002B8801339BB2012B2B80F3D9E8E7019B5C
:10D68C00226899689142EED16360034B1B89238118
:10D69C00DEE700BF881E0020002600201C2600208C
:10D6AC002DE9F8431C461D4B1B7806460F461546C4
:10D6BC0073B382B37CB3DFF86C804FF01409A3888A
:10D6CC00012B02D948F2096020E009FB03F318F89A
:10D6DC0003302BB9A0882146FFF762FF20B92060E8
:10D6EC00A3880133A380EAE723681EB199883288A6
:10D6FC009142EFD11FB119883A889142EAD19A68C8
:10D70C00C5E90023064B1B892B810020BDE8F8835B
:10D71C0048F20160FAE748F20460F7E7F8250020C8
:10D72C00002600201C26002008B5074B5888191D20
:10D73C00FFF736FF18B1BDE80840FFF7F1BEBDE8B2
:10D74C000840FFF78DBE00BF002600202DE9F04FEA
:10D75C00A44FDFF8B49289B00646B8463B6823B9AB
:10D76C00A148494600F0EDFB3860D8F80050297804
:10D77C004B1E052B07D8DFE813F022007C007C0041
:10D78C000E010E01680148F20E641422002103A858
:10D79C0008F0D3FA41F61D539C4208BF0024D8F878
:10D7AC00003004941A78013A052A00F2FA81DFE875
:10D7BC0012F0E601EA010A021A02260230022EB128
:10D7CC008A4B00225A604FF40644DEE72B79032B78
:10D7DC001DD8DFE803F015022B3685490B78022B98
:10D7EC0008461AD00B7D022B4FF0010317D11422DF
:10D7FC005343C2180020C8545068FFF765FE03E07D
:10D80C0001232B71FFF74CFE002800F0BE80774BF4
:10D81C0000225A6048F20D64B7E70023E7E7734A29
:10D82C0013700023536041F61D54AEE771497248E2
:10D83C00002302222B718A800968012200F03CFF30
:10D84C00E2E76C4C00262E712068694DFFF73CFE18
:10D85C006A4BD4F800C05A8814235343EA18EE5488
:10D86C0051682160A188C2F804C011810222A280F3
:10D87C00CAE7B5F814A0AA7DDFF874B1AEB1022ADC
:10D88C00EB8806D9142101FB0AB1DA1C0889024481
:10D89C000A81142202FB0ABAC3F57F43BAF80A20A4
:10D8AC00FD331344AAF80A308DE7142303FB0AB3A3
:10D8BC0018895C6804EB8004062A69D8DFE802F05A
:10D8CC00274E36441D5A040041F61D54AA7DEB88A0
:10D8DC00022A06D9142101FB0AB1DA1C0889024478
:10D8EC000A81142202FB0ABAC3F57F43BAF80A2054
:10D8FC00FD331344AAF80A3047E741484149002355
:10D90C004360AB690360FFF777FE00285BD002230E
:10D91C00AB75002300930423EA182146364800F027
:10D92C0035FE002831D048F20D64CFE72B69002B6F
:10D93C0014BF03230123AB750023009305F10C02E4
:10D94C00042304F10801E9E70123AB750022EB88FD
:10D95C0000922A699B0004F10C01DFE703290CBF3C
:10D96C0005230623AB7500230093042305F108025D
:10D97C00E118D3E70623AB75224B1988204B586866
:10D98C00FFF7B2FD04460028A0D109B0BDE8F08F26
:10D99C0048F20E649AE7002E7FF415AF2B79012B19
:10D9AC0034D0022B3FF43FAF002B7FF4ECAE0223BC
:10D9BC002B710DF10A01EB68039303A8CDE9046602
:10D9CC00FFF71AFE10B948F20964DEE60498BDF8B8
:10D9DC000A108388EB8003882B81FFF785FD0446B2
:10D9EC0029E000BF1826002044260020F82500203E
:10D9FC001C26002058260020881E0020002600200F
:10DA0C00DC2500206026002010260020DFF81CA258
:10DA1C0003AA53463146A81DFFF742FE044670B9CF
:10DA2C00BAF804100498FFF75FFD044648F2096346
:10DA3C009C423FF4F8AE002C7FF4A7AEA5E7082279
:10DA4C003146504608F079F9F0E7002E7FF4BBAE72
:10DA5C00714B1A7BB2B11E731A78013A062A3FF643
:10DA6C0092AE01A151F822F01FDB010045DB010051
:10DA7C0063DB010069DB010093D701006FDB010060
:10DA8C0081DB01001A78072AE6D801A151F822F0AF
:10DA9C00BDDA010065DA010065DA0100E3DA0100A4
:10DAAC00F7DA01001BDB01001BDB0100DFDA0100F0
:10DABC001A895A4901321A8100225A801A730A783B
:10DACC00B2FA82F252099A720A7DB2FA82F25209C1
:10DADC00DA72012207E0524958688A88408803327A
:10DAEC0002448A8002221A70B6E74C4C5A884C4980
:10DAFC00142505FB02420868546850608888108120
:10DB0C0002200C608880002111740622EBE70722AA
:10DB1C00E9E79A7A32B9DA7A8AB900221A705A800D
:10DB2C005A6080E63D4900229A72CA68002AF2D1F6
:10DB3C00097C0029EFD05A80FFF7F6FD4FE7002251
:10DB4C00DA72364A116A0029E7D192F82420002AA9
:10DB5C00E3D00122EFE7FFF7E3FC40E7FFF780FC9F
:10DB6C003DE72E4A5B88142101FB03235868FFF71D
:10DB7C00ABFC34E700225A60FFF792FC2FE700233E
:10DB8C008DF80C300DE001228DF80C201A89ADF8BF
:10DB9C0018209A88DB680593ADF81A2000238DF8BD
:10DBAC001C3003A8FFF71CFC002649461D48C8F88A
:10DBBC00006000F0F1F91C48012100F0A7FA0028E0
:10DBCC007FF4CCADE1E602228DF80C201A89ADF879
:10DBDC0018209A88ADF81A20DA689B7D05929A1F56
:10DBEC0053425341DBE703228DF80C20DA88ADF861
:10DBFC0018201A89DB68ADF81A200593D1E70422A6
:10DC0C008DF80C20DB88ADF818300023ADF81A30F5
:10DC1C00F3E70523B4E700BF002600201C260020F4
:10DC2C00582600204426002054260020642600207C
:10DC3C004068FFF78BBD000008B50548012100F0D6
:10DC4C004DFA18B9BDE80840FFF780BD08BD00BF0C
:10DC5C00542600202DE9F3419846374B1B78064695
:10DC6C000D46002B5CD000295DD009884FF6FF7360
:10DC7C0099425BD06B88002B58D06B689B0758D1AE
:10DC8C004AB92F890DF102013846FFF7B9FB30B1C3
:10DC9C0002B0BDE8F08113885788ADF8023001A8B6
:10DCAC00FFF75AFC044660B9BDF80230234A142130
:10DCBC0001FB032358890338C01B588148F20760C5
:10DCCC00E6E780F8008000238375BDF8023083827C
:10DCDC006B68036101211A4800F00CFA2B88238130
:10DCEC00B8F1030F6B88A38004BF0423A3754FF016
:10DCFC00000508BF3368E06008BFA3611148E780E6
:10DD0C00658101A900F00DF936B1E36833600E4B63
:10DD1C0075601B89B5723381FFF78EFF0020B7E762
:10DD2C0048F20160B4E748F20460B1E748F20360DE
:10DD3C00AEE748F20260ABE7F82500201C26002075
:10DD4C0014260020442600200026002073B50D4622
:10DD5C000446C8B1C1B10DF10601FFF74DFCB0B1DD
:10DD6C000C4BBDF806006668142202FB0030012142
:10DD7C000C3000F0BFF963682E600C336B6001232C
:10DD8C00A372002002B070BD48F20460FAE748F2BA
:10DD9C000960F7E71C26002013B50446A8B10DF165
:10DDAC000601FFF729FC98B10C4ABDF80630142186
:10DDBC0001FB0323DA6872B1A27A62B1DA6800203F
:10DDCC00013ADA60A07202B010BD48F20460FAE7C2
:10DDDC0048F20960F7E748F20560F4E71C260020DA
:10DDEC0002230022FFF736BF18B103230022FFF7EE
:10DDFC0031BF48F204607047114B1B7813B50446D1
:10DE0C00ABB14FF6FF73984214D001A8FFF7A4FBF7
:10DE1C0098B10523037001230371C48001A909483B
:10DE2C0000F07FF8FFF708FF002002B010BD48F2A9
:10DE3C000160FAE748F20360F7E748F20760F4E79D
:10DE4C00F82500204426002007B5ADF80600ADF8F3
:10DE5C0004100DF1060001A9FFF722FC03B05DF8D8
:10DE6C0004FB07B51346ADF806000A4600200DF179
:10DE7C000601FFF715FC03B05DF804FB07B513466C
:10DE8C00ADF806000A460DF106000021FFF708FC6C
:10DE9C0003B05DF804FB20B119B103680B600020DE
:10DEAC00704748F20460704730B5054659B1B2FB73
:10DEBC00F3F403FB1424A0B238B9C5E90010A86030
:10DECC00AA81EB8130BD0E20FCE70920FAE737B5BB
:10DEDC0050E8013F9DB2C48925448489A54228BFDE
:10DEEC002D1B0489A54202BFBFF32F8F002207E030
:10DEFC00C5EA030540E80154002CE9D14FF00102BA
:10DF0C008DF803200193019B9DF803200B6002F018
:10DF1C00FF0322B10B880068184403B030BD1846CB
:10DF2C00FBE70A884B889A4209D150E8012FC2EAD4
:10DF3C00024240E80123002BF7D10120704700205A
:10DF4C00704737B550E8023F1FFAA3F5C488A542C5
:10DF5C0002BFBFF32F8F00220DE0C48925448489B2
:10DF6C00A54228BF2D1BC3EA054540E80254002CEE
:10DF7C00E8D14FF001028DF803200193019B9DF82D
:10DF8C0003200B6002F0FF0322B14B880068184499
:10DF9C0003B030BD1846FBE70A884B889A4209D17A
:10DFAC0050E8022FC2EA224240E80223002BF7D1AC
:10DFBC00012070470020704701F01F024B0901211E
:10DFCC00914000EB830000F065B84B0910B501F0EF
:10DFDC001F040121A14000EB830000F04FF8E0404A
:10DFEC0000F0010010BD01F01F0301229A404B0903
:10DFFC0000EB8300D14300F065B84B0901F01F0121
:10E00C0050F82300C84000F0010070472DE9F0479C
:10E01C004F1E7F0980460E460137002558F82540D3
:10E02C0008EB8509E44394FAA4F4B4FA84F44FEAB7
:10E03C00451A202C06D10135AF42EFD83446204684
:10E04C00BDE8F0875444A642F5D921464046FFF777
:10E05C00BCFF0028F3D0D9F80040E44394FAA4F4B0
:10E06C00B4FA84F4E5E710B5034653E8000F0A460A
:10E07C0043E8002494F0000FF7D110BD10B503460F
:10E08C0053E8000F40EA010243E8002494F0000F2B
:10E09C00F6D110BD10B5034653E8002F42EA01003B
:10E0AC0043E8000494F0000FF6D110BD10B5034600
:10E0BC0053E8000F00EA010243E8002494F0000F3B
:10E0CC00F6D110BD10B5034653E8002F02EA01004B
:10E0DC0043E8000494F0000FF6D110BD10B50346D0
:10E0EC0053E8000F00EB010243E8002494F0000F0A
:10E0FC00F6D110BD10B5034653E8002F02EB01001A
:10E10C0043E8000494F0000FF6D110BD10B503469F
:10E11C0053E8002FA2EB010043E8000494F0000F39
:10E12C00F6D110BD0121FFF7B5BF0021FFF7BEBF2F
:10E13C0010B590B1D0E9012301689B1ADBB20A60DB
:10E14C00013BDBB2FF2B026802D10020107110BD25
:10E15C0011684C1C14600B70F2E70E20F7E737B512
:10E16C00054600240DF107008DF80740FEF7C2FFAD
:10E17C002A686B68116899420ED9481E106011F814
:10E18C00014CEB68298A01FB0434AB6811791B1A2A
:10E19C00DBB2994238BF13719DF80700FEF7CEFF32
:10E1AC00204603B030BD37B5054600230DF10700FE
:10E1BC000C468DF80730FEF79DFF2A681368591C32
:10E1CC001160E968641A298AB4FBF1F41C709DF89B
:10E1DC000700FEF7B3FF03B030BD826810B50446EC
:10E1EC002AB143690168006998470023A36010BDF8
:10E1FC000EB403B5039921B104AB01AA019300F04D
:10E20C0077F802B05DF804EB03B070470A2938B513
:10E21C0004460D4602D10D21FFF7F8FFA3682268D2
:10E22C00591CA160D554D4E901329A4204D320463A
:10E23C00BDE83840FFF7D1BF38BD00002DE9F84FDD
:10E24C009846DDE90A43154682460F460A464FF0CA
:10E25C000109AA420FD2C14538BFC14613F0010BC8
:10E26C0001D16CB900240126B8F1010F1BD908F1BA
:10E27C00FF386E43F8E709F10109B2FBF5F2E8E764
:10E28C009B070ED5B8F1000F0CBF30262026A145F8
:10E29C00E9D2013C31465046FFF7B8FF002CF6D1CD
:10E2AC00E0E72026F3E7B7FBF6F39D42E1D9DFF870
:10E2BC003C80B7FBF6F3504618F8031006FB1377B7
:10E2CC00FFF7A4FF3346AB42B6FBF5F6F1D2BBF138
:10E2DC00000F02D00CB1A14501D3BDE8F88F20216D
:10E2EC005046013CFFF792FFF4E700BF5C6102006F
:10E2FC002DE9F74F054617468846002900F0428164
:10E30C0018F8011B49B92B7B002B00F03B812846E8
:10E31C0003B0BDE8F04FFFF760BF252940F0B78090
:10E32C00002698F800302D2B424608F1010823D026
:10E33C00302B24D02B2B25D000242A2B02F10101C9
:10E34C0023D13B681A1D1B683A601C440A4613789B
:10E35C002E2B26D101324FF0000A104610F8011B6B
:10E36C00A1F1300CBCF1090F1DD80A2303FB0A13D1
:10E37C00A3F1300A0246F0E746F00106D1E746F079
:10E38C000206CEE746F00406CBE711F8013CA3F1F8
:10E39C0030000928DBD80A2202FB0434303C0A4640
:10E3AC00CBE74FF0000A12F8011B01F0FB006828C4
:10E3BC009046F8D0782909D86F290CD8632962D0F7
:10E3CC0022D8252963D0582900F0888098F800308D
:10E3DC00002B95D197E770390829F7D801A353F88A
:10E3EC0021F000BF6BE50100D9E30100D9E3010086
:10E3FC00F9E40100D9E30100D7E40100D9E30100FD
:10E40C00D9E30100E9E40100642901D06929DDD1D7
:10E41C003A68D2F80090111D89EAE9723960A2EBD2
:10E42C00E9724FF0010B092A35DCD34538BFD346CE
:10E43C002CB1B9F1000F01DB720700D5013CB30719
:10E44C0002D5BAF1000F03D0F00701D44CBB002465
:10E45C00B9F1000F2DDAC9F100092D212846FFF77B
:10E46C00D5FE06F00302022A04D1BAF1000F01D145
:10E47C001CBB0024CDE9004653460A2249462846D7
:10E48C00FFF7DCFEA2E73B681A1D19783A602846B4
:10E49C00FFF7BCFE9AE70A230BF1010BB2FBF3F278
:10E4AC00C1E7A345D4D220212846013CFFF7AEFE9C
:10E4BC00CCE77107D5D52B21D0E7A345DAD2302193
:10E4CC002846013CFFF7A2FED2E73968CDE90046A9
:10E4DC000A1D3A6053460A220968D0E739680A1DBA
:10E4EC003A60CDE9004653461022F5E73B681A1D09
:10E4FC003A6016F00106D3F8009028D1B9F1000F5C
:10E50C0003D0484607F04CFC0646B44200D904BB85
:10E51C0009F1FF3919F8011F00293FF457AF2846BC
:10E52C00FFF774FEF6E728460136FFF76FFE19F881
:10E53C0006100029F7D1A642BFF448AF002C3FF4D7
:10E54C0045AF20212846013CFFF760FEF3E700268B
:10E55C00EDE720212846013CFFF758FED5E73B6844
:10E56C001A1D3A60302128461C68FFF74FFE7821AF
:10E57C002846FFF74BFE00220823CDE90032214646
:10E58C0010227CE703B0BDE8F08F00BF2DE9F3410A
:10E59C0088B93D4B3D483E4AC01AC0080E243D4B3D
:10E5AC00009400043C4940F00100FEF756FA204666
:10E5BC0002B0BDE8F0814AB9334B3448374AC01A2F
:10E5CC00C0080E24334B00940004EBE7D0F800E0B5
:10E5DC00BEF1000F09D12C4B2C48314AC01AC0088F
:10E5EC0008242C4B00940004DCE74BB9264B27483D
:10E5FC002C4AC01AC0080924264B00940004D1E709
:10E60C004768D7F80480B3FBF8F708FB17374FB10E
:10E61C001D4B1E48244AC01AC00809241D4B0094E7
:10E62C000004BFE78F0709D0174B18481F4AC01AC0
:10E63C00C0081024174B00940004B3E712F0030F2A
:10E64C0009D0114B11481A4AC01AC0081024114B9A
:10E65C0000940004A6E7C768B9420BD305694C1EA9
:10E66C001C44AC4206D8DEF80C40A44602B0BDE80F
:10E67C00F0416047044B05480E4AC01AC0081024EC
:10E68C00044B009400048DE7B05E0200085F0200AA
:10E69C006C6102000263020071610200EE61020013
:10E6AC009A610200AD610200F46102001E62020078
:10E6BC003662020059620200F7B580B92A4B2B482A
:10E6CC002B4AC01AC0080E242A4B009400042A4975
:10E6DC0040F00100FEF7C1F9204603B0F0BDD0F8C0
:10E6EC0000C0BCF1000F09D11F4B2048234AC01AAF
:10E6FC00C00808241F4B00940004E8E74AB91A4BE1
:10E70C001A481F4AC01AC00809241A4B0094000466
:10E71C00DDE74768D7F800E00EF1FF370F4209D06C
:10E72C00114B1248174AC01AC0081024114B009400
:10E73C000004CCE7C768B9420CD304694D1E0EFB2C
:10E74C000255A54206D8DCF81040A44603B0BDE83B
:10E75C00F0406047044B05480B4AC01AC00810240F
:10E76C00044B00940004B2E7B05E0200085F0200A4
:10E77C006C61020015630200716102009A61020073
:10E78C00AD61020080620200A662020029DF7047C0
:10E79C0028DF704770B503689E6886B004460D4646
:10E7AC006EB114220021684607F0C7FAA3680593DE
:10E7BC00237901952BB1012B0DD06846B04706B0DB
:10E7CC0070BD01238DF8003023690293E368039335
:10E7DC0063690493F1E702238DF80030E3681B03AF
:10E7EC000293F5E7034B187A0122B0FA80F05A74C1
:10E7FC00400970477C26002070B5244C244E237AA7
:10E80C0025463BB923492448FFF79BFB306008B9E8
:10E81C00606070BD022334682B72237973B1012BB5
:10E82C0025D020460321FFF7B5FF00232B726B6028
:10E83C0018491948BDE87040FFF7AEBBD4E9052371
:10E84C00D21AB2F5805FD4E9031028BF4FF480527E
:10E85C009208012A38BF012219441844FFF796FF89
:10E86C00014650B11128DCD101232B72D1E7D4E938
:10E87C0003031844FFF78CFFF2E72B7C002BC8D165
:10E88C00BDE87040022000F009B800BF7C260020D3
:10E89C0094260020902600206C26002038B5831E7C
:10E8AC00012B45D8234C237A002B41D0022B09D1C4
:10E8BC00032830D0204B00221B68E2601A793AB151
:10E8CC00012A22D0637C7BBBBDE83840FFF794BFA4
:10E8DC00D3E905128D1AB5F5805F94BF521902F574
:10E8EC0080529A619142EDD102284FF0000308BF8B
:10E8FC0019462372104B18BF0D211868FFF74AFFF9
:10E90C000E490F48FFF748FBDCE71A6901321A6120
:10E91C005B699A42E7E7E3680133082B01D8E360AF
:10E92C00D0E70023E360DFE7BDE8384005F032BAFA
:10E93C0038BD00BF7C2600209426002090260020A5
:10E94C006C26002000F0FD03012B08D1044B0022A3
:10E95C005A74421E504250411874FFF74DBF704715
:10E96C007C2600202DE9F84FB0F806A04579D2F8A6
:10E97C0000B09DF828900AFB05F5043D88460BEB8A
:10E98C000301A94203F1040488BFA5EB030BB4FBFC
:10E99C00FAF607460AFB1644C2F800B04EB9AAEBC9
:10E9AC0004055D4528BF5D46BBF1000F04D1BDE8F1
:10E9BC00F88F3F68013EF1E7043408EB06003C4455
:10E9CC002A46B9F1000F0DD02146ABEB050B07F031
:10E9DC008BF9DA452E443F6855464FF0000428BFAA
:10E9EC005D46E1E701462046EFE7FFF7A1BBF8B52E
:10E9FC0046790146721E0546002393422D6803D3C7
:10EA0C000024A64202D8F8BD0133F6E70F68284669
:10EA1C00FFF7C9FB01343946F3E72DE9F843068AC1
:10EA2C00CD1C0746FFF79BFB043E35440446B5FB63
:10EA3C00F6F5F0B14FF48073EDB28380C680013DE2
:10EA4C00076081464FF00008A84512D23846FFF700
:10EA5C0086FB064648B163790133637108F10108FE
:10EA6C00C9F8000007608146EEE72046FFF7BFFFBC
:10EA7C0034462046BDE8F88301210430FFF73ABB49
:10EA8C0010B5012104460430FFF740FB10F0FF0FD6
:10EA9C0004D12046BDE81040FFF7A9BF10BD1FB53B
:10EAAC0003920022009203AAFFF75CFF05B05DF809
:10EABC0004FB1FB503920122009203AAFFF752FF39
:10EACC0005B05DF804FB41DF70470000064B10B544
:10EADC0000241C70054B1C60BFF35F8F0449054874
:10EAEC0000F01FF8204610BDA0260020A426002010
:10EAFC00346302009826002008B505F05BF918B1C4
:10EB0C00BDE80840FFF7DFBF20BF40BF20BF08BDF6
:10EB1C00836800225A60C3E904229A60DA601A60A2
:10EB2C0070470B684A684360934208BF002301603A
:10EB3C0008BF43607047436843B1026891685268EC
:10EB4C000B449342436004BF00234360704770B58D
:10EB5C00446806460D46206818B1B36829469847A4
:10EB6C0018B923682B60256070BD2468F3E74368EF
:10EB7C00186808B102681A607047436818687047D3
:10EB8C004368186800B97047884203D102681A605C
:10EB9C000120704703460068F4E7000010B50D49EA
:10EBAC00A1F59472914201D800200FE08C1AE30F6A
:10EBBC0003EBE4035B1002EBC30452F833308342E3
:10EBCC0005D802D204F10802ECE7606810BD2146BA
:10EBDC00E8E700BF4068020008B5FFF7DFFF024B13
:10EBEC00002808BF184608BD03670200BFF34F8F0B
:10EBFC000549064BCA6802F4E0621343CB60BFF3CD
:10EC0C004F8F00BFFDE700BF00ED00E00400FA05E8
:10EC1C00044B1868421C04BF034B1878831F5842DE
:10EC2C005841704730010010E00F00F0074B1B7883
:10EC3C00062B09D1064B1B68C3F30313033B032BB1
:10EC4C0002D8044AD05C704700207047E00F00F0F7
:10EC5C00E80F00F048680200074B1868421C04BF1C
:10EC6C00064B1878062804D0A0F10A0358425841E4
:10EC7C0070470120704700BF30010010E00F00F01A
:10EC8C0008B5FFF7C5FF28B1944B954A1B68C3F331
:10EC9C0004231360FFF7CAFF10B1924B924A1A601B
:10ECAC00FFF7DAFF28B1914B914A1B68C3F342334B
:10ECBC001360FFF7BBFF20B18E4AD36823F080733B
:10ECCC00D360FFF7C9FF40B14FF080430022C3F877
:10ECDC000C21C3F81021C3F83825FFF7A7FF10B19A
:10ECEC00854B03221A60FFF7A1FF40B1834B05222D
:10ECFC001A6001229A6700229A603F225A60804B68
:10ED0C001A68501C0BBF7F4B7F4B1A781B6802BFD5
:10ED1C0008331B68C3F30313062A4ED1033B032BA2
:10ED2C0003D87A4AD35C002B49D04FF08052784BF1
:10ED3C00D2F80414C3F82015D2F80814C3F824151B
:10ED4C00D2F80C14C3F82815D2F81014C3F82C15EB
:10ED5C00D2F81414C3F83015D2F81814C3F83415BB
:10ED6C00D2F81C14C3F84015D2F82014C3F844157B
:10ED7C00D2F82414C3F84815D2F82814C3F84C154B
:10ED8C00D2F82C14C3F85015D2F83014C3F854151B
:10ED9C00D2F83414C3F86015D2F83814C3F86415DB
:10EDAC00D2F83C14C3F86815D2F84014C3F86C15AB
:10EDBC00D2F84424C3F8702501E00A2AB5D0FFF735
:10EDCC0027FF28B1534B544A1B6803F04F031360C1
:10EDDC00FFF742FF48B14FF08043D3F80024D1072E
:10EDEC0044BF6FF00102C3F80024454B1B68062B8F
:10EDFC000CD1454B1B68033B032B02D8474AD35C11
:10EE0C0083B1474A136843F4806313603C4B1B681F
:10EE1C000A2B07D13C4B1B6823B13F4A136843F0C4
:10EE2C000F0313604FF01023D3F80022002A03DBEA
:10EE3C00D3F80432002B24DA3A4B0122C3F8042510
:10EE4C00D3F80024002AFBD04FF010221521C2F871
:10EE5C000012D3F80024002AFBD04FF01023152207
:10EE6C00C3F804222F4B1A46D3F800140029FBD008
:10EE7C000021C3F80415D2F80034002BFBD0FFF7A7
:10EE8C00B5FE294B1B68DA0703D4284B1B68DB073C
:10EE9C001FD5244B0122C3F80425D3F80024002AE3
:10EEAC00FBD0214A00211160D3F80024002AFBD0AA
:10EEBC001E4B00221A601B4B1A46D3F80014002973
:10EECC00FBD00021C3F80415D2F80034002BFBD082
:10EEDC00D5E7174B174A1A6008BD00BF2403001072
:10EEEC004035014074C007400DF0ADBA440200102B
:10EEFC003C050040F0ED00E0A0050040105600403D
:10EF0C0030010010E00F00F03401001040680200E6
:10EF1C0000C0004058020010E40E0040446802009B
:10EF2C003C17004000E001400012001004120010D9
:10EF3C00C01E00200090D00338B5074C051E04F10C
:10EF4C00080318BF1C4623682BB11A6822605B6843
:10EF5C0028469847F7E738BDB026002020B9054B66
:10EF6C0001225A70FFF7E8BF012802D1014A9070C4
:10EF7C00F8E77047A826002020B9034B01225A70ED
:10EF8C00FFF7DABF704700BFA826002038B50E4C3B
:10EF9C002378B3B90D486360A3602361E36000F08C
:10EFAC00E5F8054604F006FF08B900F0EBF801237C
:10EFBC002370074BD3F800340BB10123A370284600
:10EFCC0038BD8525F5E700BFA826002069EF0100B4
:10EFDC000000014037B50D4C00230DF107008DF8F2
:10EFEC000730FEF787F8E368013BE360E36833B969
:10EFFC00074BD3F8005415B900F0D6F8A5709DF85E
:10F00C000700FEF79BF803B030BD00BFA826002018
:10F01C0000000140012813B50CD0032820D038B9CA
:10F02C00124B0122C3F88020BFF34F8FBFF36F8FB9
:10F03C0002B010BD0E4C00230DF107008DF8073007
:10F04C00FEF758F823780BB9FFF7A0FFE3689DF89B
:10F05C0007000133E3600123A370FEF76FF8E7E7C5
:10F06C0000F090F8FFF7B6FFE2E700BF00E100E028
:10F07C00A82600201FB503788DF800304368019353
:10F08C0083688DF80830C368054A0393054B6846BE
:10F09C0053F8213052F82110984705B05DF804FB65
:10F0AC00BC260020C02600201FB503788DF8003048
:10F0BC004368019383688DF80830C368054A03934D
:10F0CC00054B684653F8213052F82110984705B08B
:10F0DC005DF804FBBC260020C0260020F0B5194BBF
:10F0EC0090F800C091F81DE043F82C20164B164602
:10F0FC000A6943F82C20154B03F80CE00C46074624
:10F10C000FCC89B06D460FC594E80F0085E80F0051
:10F11C00CDF810C0BEF1000F09D0002E0C4A694684
:10F12C0008BF3246381D01F005F809B0F0BD002EBD
:10F13C00084A694608BF324607F10C0000F048FA4D
:10F14C00F3E700BFC0260020BC260020C426002008
:10F15C0081F00100B5F0010000F18040002382B085
:10F16C00036003680193019B02B07047044B024695
:10F17C00187918B91A6001229A8070478520704757
:10F18C00C8260020074B1A68D20704D4C02283F883
:10F19C00002301221A604FF080430122C3F8182586
:10F1AC00704700BF00E100E04FF0804208B5022339
:10F1BC00C2F808334FF48270FFF7CEFF034B0121E6
:10F1CC001960D2F81834DB03FBD408BD0C000040E6
:10F1DC00124B1B6810B573B14FF48070FFF7BCFF76
:10F1EC004FF080430122C3F808230D4B587910B916
:10F1FC005A711B6898470B4B1B6873B14FF48270A4
:10F20C00FFF7AAFF4FF080430222C3F80823044BF8
:10F21C00BDE810401B680120184710BD00010040DC
:10F22C00C82600200401004000F1804000F5C040D9
:10F23C00002382B0036003680193019B02B0704706
:10F24C00800000F1A040D0F8002722F44032C0F832
:10F25C000027D0F8003743EA0143C0F80037704765
:10F26C002DE9F74F00244E4D01944FF4807201218B
:10F27C0002F1804303F5C04390B21B68012B06D109
:10F28C00D5F804330B4202D0FFF7CEFF0C43043207
:10F29C00B2F5907F4FEA4101EAD1424B1B68012B3A
:10F2AC000CD14FF4BE70FFF7BFFF4FF0A04344F0FA
:10F2BC000044D3F820250192C3F8202514F0FF0F49
:10F2CC001AD0394F00250126344210D0AB0003F17F
:10F2DC00804303F5C043D3F81005D3F8101557F845
:10F2EC00253023B1C1F30141C0F304209847013507
:10F2FC00082D4FEA4606E7D1002C48DA2A4D4FF08C
:10F30C00A0482A4E4FF00009012716F9013B5A1C60
:10F31C0031D0C3F3C20202A90A44DCB212F8042CA5
:10F32C0003F03F0A03F0070307FA03F31A4222D053
:10F33C000AF5E073504658F82330C3F3014BBBF188
:10F34C00020F0CBF03210221FFF77AFF07FA0AF321
:10F35C00C8F8203505EB0A0393F9303055F8233003
:10F36C004BB1A109032904D0BBF1020F12D1012921
:10F37C0001D15046984709F10109B9F1040FC4D1E4
:10F38C00D8F820350193C8F82035002BB9D103B03B
:10F39C00BDE8F08FBBF1030FEDD10229E8E700BF08
:10F3AC00006000407C610040D02600202027002017
:10F3BC00014B1B68184700BF2C2700200E4B9842AE
:10F3CC0037B50C4602D0002003B030BD00230DF140
:10F3DC0007008DF80730FDF78DFE084B1D7915B928
:10F3EC0001221C601A719DF80700FDF7A7FE002D85
:10F3FC00E9D01120E8E700BF002000402C270020B6
:10F40C00034B984201BF034B00221A601A717047DC
:10F41C00002000402C2700200023435082B043588A
:10F42C000193019B02B070470A4610B54FF48E71E0
:10F43C00FFF7F2FF136A9168C95C136A0133136218
:10F44C00C0F81C1510BD8B690A4610B54FF48471B9
:10F45C0023B9FFF7E1FFD0F8183510BDFFF7DCFF3B
:10F46C00536AD168D0F81805C854536A01335362F3
:10F47C00F3E700001FB501238DF80030044BCDE9F4
:10F48C000110D3E900126846904705B05DF804FB03
:10F49C003427002030B54C48D0F8043313F4007FE7
:10F4AC0085B005464DD0D0F82431002B49D04FF40F
:10F4BC009271FFF7B1FF4FF40173C0F80833434B5F
:10F4CC0093F829200AB9012242603F4902228DF8A3
:10F4DC000020D1F88024C1F8802403929A6902920A
:10F4EC00DA6801920022C3E906226846D3E90012C9
:10F4FC0090473548D0F81C315BB134494A690B6AE6
:10F50C009A420A464AD991F82830002B46D1FFF787
:10F51C008BFF2D48D0F844318BB14FF4A271FFF71B
:10F52C007BFF2A4B93F829200AB1012202609A69C9
:10F53C002AB10022586AD9689A61FFF79BFF05B07F
:10F54C0030BDD5F804335B07D3D5D5F80831002B83
:10F55C00CFD01E4C1C482146FFF775FF636AA26989
:10F56C009A422346C5D1E269E1684AB12369E36056
:10F57C000023606AA261E3616362FFF77BFFB8E777
:10F58C0094F829200AB901226A600F4A4FF40170DD
:10F59C00C2F808030022586A9A61EEE70A484FF451
:10F5AC008E71FFF739FF5369002BB2D0516902916C
:10F5BC00002391688DF80030019153616846D2E9BF
:10F5CC0000139847A5E700BF002000403427002017
:10F5DC002DE9F843544B057991462C2202FB053258
:10F5EC00064692F82A200C469846002A40F098804D
:10F5FC004E490068FFF7E2FE0746002840F0928073
:10F60C0021683368481C0BD04FF0A04001228A407F
:10F61C00C0F8082501F5E0724FF0030C40F822C049
:10F62C006068421C1FBF00F5E0724FF0A04C4FF019
:10F63C00000E4CF822E0A269C3F8242594F814C0FB
:10F64C00627DBCF1010F4CEA0202C3F86C25C3F8D1
:10F65C001405C3F80C151DD1A1684A1C1FBF01F578
:10F66C00E0724FF0A0404FF0000C40F822C0E2686E
:10F67C00501C0BD04FF0A04C01209040CCF808054A
:10F68C0002F5E0704FF0030E4CF820E0C3F80825AB
:10F69C00C3F810152C236B4308EB0302C2F804903B
:10F6AC00226948F80320B9F1000F21D03068247F7B
:10F6BC004FF48E71FFF7B0FE4FF4A2713068FFF774
:10F6CC00ABFE32681A4BC2F80433110B42F307320B
:10F6DC006301002ADBB21EDB1648841884F8003361
:10F6EC000123520901F01F0103FA01F140F8221025
:10F6FC0033680422C3F800252C2303FB0583002266
:10F70C00C3E9062283F829205A61012283F82A20B2
:10F71C003846BDE8F883084A01F00F015354E7E777
:10F72C000827F5E71127F3E734270020A1F401009F
:10F73C008000020000E100E014ED00E0F8B5036881
:10F74C000479304D0022C3F800252C2202FB045210
:10F75C005268A2B12C4AC3F808231A0B43F307339F
:10F76C00002B0CDB02F01F015B0901228A402033C5
:10F77C00264941F82320BFF34F8FBFF36F8F0068EA
:10F78C00D0F80C65D0F81415D0F80835D0F8102541
:10F79C004FF0FF37BE42C0F8147518BF06F5E0767F
:10F7AC00C0F80C75C0F80875C0F810751EBF4FF086
:10F7BC00A0474FF0020C47F826C04E1C1FBF4FF05D
:10F7CC00A04601F5E071022746F82170511C1FBFBD
:10F7DC004FF0A04102F5E072022641F822605A1C5B
:10F7EC001FBF03F5E0734FF0A042022142F8231033
:10F7FC00FFF706FE2C2303FB0454002384F82A3065
:10F80C006360F8BD342700208402020000E100E0B0
:10F81C002DE9F047204F90F804904FF02C0808FB8E
:10F82C00097405466669002E34D162610068A160D6
:10F83C0026624FF48E7184F82860FFF7EDFD28687E
:10F84C00012383602146FFF7EFFD6368A0468BB967
:10F85C002868D4F814A0236A9A4511D82A68D2F8DB
:10F86C001C31002BFBD00123D3602C2303FB097329
:10F87C0000225A613046BDE8F08794F828303BB935
:10F88C00D0F81C31002BF8D04146FFF7CDFDE2E754
:10F89C000F26EAE71126EDE7342700201FB5037881
:10F8AC008DF800308388ADF8043083688DF806300D
:10F8BC00C3688DF80730036902934369054A0393C3
:10F8CC00054B684653F8213052F82110984705B083
:10F8DC005DF804FB6027002064270020024B4FF4E6
:10F8EC00807043F001031847706802002DE9F0475F
:10F8FC00174690F80090324A42F82970314A42F883
:10F90C0029304B7B80460C4663B3086849688200FB
:10F91C008B0002F1A04203F1A04340F20C65C2F847
:10F92C0000570126C3F800574FF0A04506FA00F027
:10F93C0006FA01F1C5F80805C5F8081540F20D6185
:10F94C00C2F80017C3F80017FFF7C8FF4FF0000A02
:10F95C00D5F81025636822FA03F3DB070ED5BAF14C
:10F96C00000F1ED1002F184A4B4608BF3A462146BD
:10F97C0008F10400BDE8F04700F020B9236806FA4E
:10F98C0003F3C5F80C35FFF7A9FF236806FA03F358
:10F99C00C5F808350AF1010AFFF7A0FFBAF1090F03
:10F9AC00D6D1636801254FF0A04605FA03F3C6F8DB
:10F9BC000C35FFF793FF63689D40C6F80855D1E7F7
:10F9CC006427002060270020A9F801000023435081
:10F9DC0082B043580193019B02B070470A7B0346E7
:10F9EC00032A29D8DFE802F0212519028A6850037E
:10F9FC0004D5D3F84C250869904207D18A68520384
:10FA0C001AD4D3F84C254969914215D0002006220E
:10FA1C00C3F80005C3F800257047D3F84C250869D6
:10FA2C009042F3D1D3F83C25EDE7D3F84C25096986
:10FA3C00EAE7D3F83C25FAE701207047F0B55A48BD
:10FA4C005A4CD0F8243187B00546F3B14FF492717B
:10FA5C00FFF7BCFFD0F80431BBB9A368C0F808337A
:10FA6C000223A360A368C0F80433D0F860311BB143
:10FA7C00D0F800329F0503D44B4B01221A625A6115
:10FA8C00012384F82E3007B0F0BDD5F80431002BDB
:10FA9C0052D045484FF48271FFF798FF236A5E06F7
:10FAAC000AD494F82E303BB940493F48FFF796FFF3
:10FABC0080F0010084F82E00236A5D0721D43C4EAF
:10FACC000FCE01AD0FC5336837482B604FF4B071C2
:10FADC00FFF77CFF34484FF4AE71FFF777FF94F8D3
:10FAEC00303013B194F82E305BB12F4B0022C3F899
:10FAFC000022A2602F4AC3F808232F4B0822C3F818
:10FB0C008021294AD2F8C434C2F8C43498073DD5B0
:10FB1C0001238DF8003094F830300BB984F82F3075
:10FB2C00236A5B0703D594F82E30002BABD0D4E9B5
:10FB3C00003168469847A6E71B484FF4A471FFF7BD
:10FB4C0045FF237B83B91A4F0FCF01AE0FC63B681D
:10FB5C00336094F83030002BD3D1C5F80032A36059
:10FB6C00144BC5F80833C8E74FF40073C5F80032DE
:10FB7C0040F20223A36003F1CE73C5F80833A368E7
:10FB8C00C5F804330123AB602B627CE7590701D520
:10FB9C000223BEE7DA0701D50323BAE794F82E3027
:10FBAC00002BB6D00423B4E70030004068270020B7
:10FBBC007427002002029C0100E100E02DE9F84FBF
:10FBCC000679304D4FF0340A0AFB06FA05EB0A07AA
:10FBDC009B4697F82D3080460C469146002B4DD114
:10FBEC0029490068FFF7EAFB002849D12168637BAB
:10FBFC0087F8323001F5E0724FF0A043B860C7F8D7
:10FC0C0004B087F82F0087F8300040F20C6745F8F5
:10FC1C000A9043F82270626802F5E07C43F82C707D
:10FC2C00D8F80030C3F80815C3F80C25A268C3F83F
:10FC3C002425B9F1000F14D0227B43F30731520174
:10FC4C000029C3F30733D2B213DB104C671887F8C3
:10FC5C0000230122490903F01F0302FA03F344F8BD
:10FC6C002130342303FB0655012385F82D30BDE8E4
:10FC7C00F88F074903F00F03CA54F2E70820F6E7A0
:10FC8C001120F4E76827002049FA010000E100E0A8
:10FC9C0014ED00E0026803790621C2F80015044A4D
:10FCAC00342101FB0323022283F82D20704700BF6F
:10FCBC00682700200379034A342101FB032393F8BE
:10FCCC002F007047682700202DE9F843B14F90F8BA
:10FCDC0004900468342606FB0976002386F82E303F
:10FCEC00CB6803F06043B3F1005F0D46904603D040
:10FCFC0010263046BDE8F883A74BC4F8083396F8B5
:10FD0C002F3023B1B368C4F804331126F1E712F095
:10FD1C00140F0CBF0123002386F82F308E46BEE84B
:10FD2C000F0006F10C0CACE80F00DEF80030CCF83C
:10FD3C000030C8F3001386F83030C6F820806B789A
:10FD4C00C4F8883520464FF48271FFF73FFE4FF41C
:10FD5C009271FFF73BFE4FF4B071FFF737FE4FF493
:10FD6C00A471FFF733FE18F0010318BF0123C4F888
:10FD7C00503518F0020318BF0123C4F840352B7816
:10FD8C00032B00F2B480DFE803F0839F68022B6939
:10FD9C0003F06043B3F1005FAAD14FF48073C4F851
:10FDAC000032EA686B68C4F844254FF4A871C4F8B3
:10FDBC004835FFF70BFE01232362A360D4F85031C2
:10FDCC00002BFBD04FF4A8712046FFF7FFFDAB686A
:10FDDC002A69C4F84425C4F84835342303FB097355
:10FDEC004FF480229A600823002618F0080F04D1E3
:10FDFC002A78032A1CBF0122E250342303FB09F3A7
:10FE0C00FA18FB58002B75D10125D4F84821D4F8E9
:10FE1C000431002B40F08880003A18BF0122D4F83E
:10FE2C002431002B00F087804FF492712046FFF7AD
:10FE3C00CDFDD4F86011D4F8003209B1980504D482
:10FE4C00256265610029E0D00022DB0573D54FF4F3
:10FE5C00A4712046FFF7BAFDD7E76B68EA68C4F8CF
:10FE6C004425C4F848352B6903F06042B2F1005FB9
:10FE7C007FF43EAFAA68C4F834354FF48453C4F809
:10FE8C003825C4F80032342303FB0973022212E034
:10FE9C006B68EA68C4F8442518F0200FC4F848359C
:10FEAC004FF034030BD04FF48072C4F8002203FBE4
:10FEBC0009734FF480229A600123236293E74FF475
:10FECC000072C4F80022DFE76B68EA68C4F83425D6
:10FEDC00C4F838354FF48053C4F80032342303FB94
:10FEEC00097302229A600123236200237CE7082312
:10FEFC0007267AE718F0040F1CBF0023936018F054
:10FF0C00400F06D1342303FB09739A6842F00202B6
:10FF1C009A60342303FB0977BB6843F40073BB601E
:10FF2C00BB68C4F80433E4E64FF482712046FFF753
:10FF3C004DFD012273E7002A3FF467AF3421D4F85A
:10FF4C00C434C4F8C43401FB0972002082F82F00B9
:10FF5C0093B113F0010F14BF4FF40246032648F27D
:10FF6C00012213F0020F18BF164613F0040F48F2CB
:10FF7C00022318BF1E46BCE618F0400F7FF4B9AE42
:10FF8C0009FB01712046FFF729FD002808BF032655
:10FF9C00AFE600BF6827002002029C0110B586B0B6
:10FFAC000024CDE902349DF820308DF80510A342D1
:10FFBC00CDE9042401A914BF202222468DF8044067
:10FFCC00FFF782FE06B010BD10B586B00124029377
:10FFDC000023CDE903328DF805101A4601A98DF8DE
:10FFEC0004400593FFF770FE06B010BD002343508C
:04FFFC0082B0435834
:020000022000DC
:100000000193019B02B070471FB501238DF80030AA
:10001000044BCDE90110D3E900126846904705B0C2
:100020005DF804FB9C2700207FB5434AD2F8246189
:10003000002E60D010464FF49271FFF7DDFF0223CF
:100040008DF80030D2F88034C2F880340393D2F8AF
:100050003C350293394BDA6801920022C3E906224B
:100060006846D3E9001290473348D0F8443173B161
:100070004FF4A271FFF7C0FF304B9A693AB10022EA
:10008000C3E90622D968D0F83C05FFF7BDFF2A482E
:10009000D0F82031ABB14FF49071FFF7ADFF0123E1
:1000A000C360264B5A6962B1D0F84C150291002208
:1000B00099688DF8002001915A616846D3E90012D1
:1000C00090471D48D0F858319BB14FF4AC71FFF701
:1000D00093FF1A4B5A6962B1D0F84C150291002275
:1000E00099688DF8002001915A616846D3E90012A1
:1000F000904704B070BDD2F81031002BB4D04FF44B
:1001000088711046FFF778FF0C4BD2F83C059969CF
:100110008842A9D1DC69D96864B1D2F8005225F0CF
:100120002005C2F800521A699C61DA60DE61FFF7AF
:100130006BFF99E79C61FAE7002000409C270020B4
:100140002DE9F8435B4B06799146242202FB0632E7
:10015000044692F820200D469846002A40F0A580DB
:1001600055490068FFF730F90746002840F09F80A6
:1001700029682368481C0BD04FF0A04001228A4018
:10018000C0F8082501F5E0724FF0030C40F822C0DA
:100190006868421C1FBF00F5E0724FF0A04C4FF0A2
:1001A000000E4CF822E0AA69C3F8242595F814C083
:1001B0006A7DBCF1010F4CEA0202C3F86C25C3F85A
:1001C0000C15C3F814051DD1A9684A1C1FBF01F501
:1001D000E0724FF0A0404FF0000C40F822C0EA68F7
:1001E000501C0BD04FF0A04C01209040CCF80805DB
:1001F00002F5E0704FF0030E4CF820E0C3F808253C
:10020000C3F810152423734308EB0302C2F80490CB
:100210002A6948F80320B9F1000F30D020682A7FFE
:100220004FF48871FFF7E8FE20684FF49071FFF7F4
:10023000E3FE20684FF49271FFF7DEFE20684FF472
:10024000A271FFF7D9FE4FF4AC712068FFF7D4FE1E
:1002500023681A49C3F80413190B43F307335201F7
:10026000002BD2B21CDB1648C51885F800230122EA
:100270005B0901F01F0102FA01F140F82310236825
:100280000822C3F80025242303FB06830022C3E9C8
:1002900006225A61012283F820203846BDE8F883FF
:1002A000084B01F00F015A54E9E70827F5E7112739
:1002B000F3E700BF9C270020290002001003420042
:1002C00000E100E014ED00E0F8B5444D047924238A
:1002D00003FB045302465B680068ABB1404BC0F8B7
:1002E000083340F30733002B4FEA10310CDB01F0E9
:1002F0001F065B090121B14020333A4E46F8231016
:10030000BFF34F8FBFF36F8FD0F8003223F020037D
:10031000C0F80032242303FB04539B692BB14FF434
:10032000A271FFF769FE012343604FF4AC71FFF740
:1003300063FE0123C360242303FB0453D0F8581148
:100340000029FBD0996919B1D0F844110029F5D0E2
:100350000023C0F800351368D3F80C75D3F8146582
:10036000D3F80825D3F810154FF0FF3C6745C3F8C4
:100370000CC518BF07F5E077C3F814C5C3F808C566
:10038000C3F810C51EBF4FF0A0434FF0020C43F856
:1003900027C0771C1FBF4FF0A04306F5E076022769
:1003A00043F826704E1C1FBF01F5E0714FF0A043CB
:1003B000022643F82160531C1FBF4FF0A04302F5F3
:1003C000E072022143F82210FFF720F8242303FBF8
:1003D0000454002384F820306360F8BD9C2700207B
:1003E0001003420000E100E001F06043B3F1005F60
:1003F0002DE9F041064638D11E4B0779242505FB2F
:10040000073598466C69002C31D16A610068A96093
:100410004FF49071FFF7F0FD4FF4AC713068FFF7C7
:10042000EBFD33686A69A968C3F84415C3F8482529
:1004300001229A606A68AAB9D3F82021D3F85841FA
:100440001AB9002CF8D00F2407E0002CFBD10122B0
:10045000DA60D3F85821002AFBD0242303FB078756
:1004600000237B612046BDE8F0811024FAE71124C7
:10047000F8E700BF9C270020032811D8012A0AD1E1
:1004800001290FD100F10E02D2B20D4B00EB40005A
:100490001A54002070470129F7D0022904D049B12D
:1004A000072070470022F8E7054B00EB4000184496
:1004B0004270EEE7024B00EB400018448270E8E720
:1004C000C027002008B5012202210020FFF7D4FF39
:1004D00008B1072810D1072202210120FFF7CCFF25
:1004E00008B1072808D100210A220846FFF7C4FFF7
:1004F00010B1072808BF002008BD00000388102B9A
:1005000010B502D0112B1ED010BD1A4C2168B1B904
:1005100001220846FFF7B0FF08B1072824D10722BF
:1005200002210120FFF7A8FF08B107281CD10422EF
:1005300002210020FFF7A0FF08B1072814D123688B
:1005400001332360E0E70B4A1368013B1360002B83
:10055000DAD1FFF7B7FF0028D6D0074B1B68002B76
:10056000D2D0BDE810401847034B1B68002BE6D0E3
:100570009847E4E7D0270020CC2700206DDF7047A4
:1005800079DF70477DDF704764DF70472DE9F04FFA
:1005900085B000250E9CBDF83CB0B4F800A00191D8
:1005A000074690461E46A9463A884A450DDC45B1A5
:1005B0002388013BA3EB0A039BB2FF2B3AD806F832
:1005C0000A30002005B0BDE8F08F7A6852F82900A3
:1005D000039000220DF10B0103A8FFF7D5FF0028BF
:1005E000F0D19DF80B20424521D12288002D14BF67
:1005F0000020022002EB0801014459451ADC3DB9F4
:10060000013292B2019B2280B354228801322280AF
:1006100022880DF10B01324403A8FFF7B5FF002833
:10062000D0D121889DF80B200A442280012509F1B0
:100630000109B9E70C20C5E72DE9F341089FBDF892
:1006400024801546CDE90078022204461E46FFF7B5
:100650009DFF50B93346102229462046CDE908783F
:1006600002B0BDE8F041FFF791BF02B0BDE8F081F4
:100670002DE9F04F00231788138090F82D3085B0B6
:1006800006460D46144653B3082F01D80C2027E127
:1006900002A8FFF773FF002840F022812388082278
:1006A000EA54238801339BB21B222380EA5420881A
:1006B000013080B2208006220DF10901284405F0A6
:1006C00019FB23889DF8082006339BB212F0FE0226
:1006D00018BF01222380EA54238801332380B37892
:1006E000FBB123880433BB42D0D802A8FFF748FFF0
:1006F000002840F0F58023880322EA542388013340
:100700009BB219222380EA542388BDF808200133C4
:100710009BB2E9182380EA54120A4A7023880233F4
:100720002380F2789AB12388D91CB942AED802212D
:10073000E954238801339BB201212380E9542388A3
:100740000B449BB22380EA5423880B4423807268B5
:10075000AAB12388D91CB94298D8022192F9002065
:10076000E954238801339BB20A212380E95423886A
:1007700001339BB22380EA542388013323803389D9
:10078000002B40F0A180338A5BB1CDE900472B46B6
:100790000722032106F11000FFF74EFF002840F06A
:1007A0009F80338B5BB1CDE900472B461522142186
:1007B00006F11800FFF740FF002840F09180326AF0
:1007C000002A40F09080D6F82480B8F1000F30D095
:1007D000B8F804302188981C8A1C0244BA423FF6BB
:1007E00055AFFE283FF652AF03336B5423880133D5
:1007F0009BB2FF222380EA54238801339BB22380DB
:10080000B8F80020EA54E918120A4A702088023029
:1008100080B22080B8F804205AB1D8F80810002916
:100820006BD0284405F066FA2388B8F804201344F6
:10083000238096F82C30002B40F09A8030780028E6
:100840004ED03388012B58D0228802F1020CBC45CF
:100850003FF61CAF012805D17378023313449F4241
:10086000FFF414AF023FBF1ABFB202A905EB0C00A0
:10087000ADF80870FFF786FE90BB3178BDF8083000
:10088000022900F0BA8072789A4202D3BB4240F249
:10089000B280012940F0B380974293B2C0F0AF809C
:1008A000ADF808300821BDF80830FE2B3FF6EEAE5B
:1008B00022880133AB542288013292B22280A9549B
:1008C0002288134423800BE0CDE900472B46062203
:1008D000022106F10800FFF7AFFE00283FF453AFF6
:1008E00005B0BDE8F08FB4F800C00CF10603BB42C0
:1008F0003FF6CCAE1188052901D80720F0E76FF448
:10090000486E01EB0E039BB24FF27D3E7345F4D966
:100910005388052BF1D96FF44860181880B27045E0
:10092000EBD94FF6FF70814203D0834201D0994248
:10093000E3D8052305F80C30238801339BB212213C
:100940002380E954238801339BB223801188E95422
:10095000E818090A4170238802339BB22380528829
:10096000EA54E918120A4A702388023323802AE7DE
:10097000B36A002BC1D04FF000094FF00C0A4FF0C2
:10098000160B96F82C305FFA89F293427FF656AF39
:10099000B16A0AFB02F201EB0208B8F80430981CB5
:1009A000FE283FF673AE208803332B54238801338F
:1009B0009BB2238005F803B0238801339BB22380C8
:1009C0008A5AEA54E918120A4A702088023080B222
:1009D0002080B8F804205AB1D8F8081000298CD02B
:1009E000284405F087F92388B8F8042013442380AD
:1009F00009F10109C5E7092155E7BB42FBD9ADF86B
:100A000008704FE730B5C8B1F2B10024651C8D42C3
:100A100006DA1588A54212D805196D789D420ED1C7
:100A2000A14211D9005D48B1013880B230B1023421
:100A3000A3B210FA84F4A14206DB138030BD055D39
:100A400001352C44A4B2E1E70020F7E713B51346C3
:100A50000022ADF806200DF106020446FFF7D2FF92
:100A600010B1BDF80600204402B010BD72DF70471F
:100A700073DF704738B5012204460D46B0F8D81030
:100A8000D0F8D400FFF7E2FF00B1057004F13C029A
:100A900004F1D40104F15400BDE83840FFF7E6BF8B
:100AA00080F830107047F8B504460F46002968D02A
:100AB000002866D091F87A301BB191F89830002B5D
:100AC00061D1D7F8A030042B5DD0D7F89C30042B2F
:100AD00059D04FF0000C84F802C007F178060FCE11
:100AE000251D0FC50FCE0FC596E8070085E8070046
:100AF00084F830C0D7F8A4306363D7F8A830A36374
:100B00004FF6FF7504F1D403C4F8E430A4F8E850BC
:100B10000722614604F1EA0005F015F923780BB9C4
:100B200084F85450224604F155011F25C4F8D4100E
:100B3000384622F8D85FFFF79BFD08BB224604F138
:100B40009301C4F8DC1007F13C0022F8E05FFFF7E6
:100B50008FFDA8B9A369A4F848304FF4807301252C
:100B6000A4F8503063692064014684F83C50636403
:100B700004F13C0204F15400FFF778FF00B925703E
:100B8000F8BD0E20FCE70720FAE7F8B50778044621
:100B90000D46002F00F0F88000F1EA068170072270
:100BA0000021304605F0CFF8E38813B1A378012B7C
:100BB00004D0E3794BB1A378022B06D1636BA3B1C8
:100BC000012284F8F12008209847334604F1F0010F
:100BD00013F8012F12B99942FAD117466B1E032B55
:100BE00051D8DFE803F0050B0F1284F8F130ECE781
:100BF000A3791BB194F8243003B95FB9E3790BB141
:100C0000002F42D1237A002B41D1637A002B0CBFF5
:100C100000250425636BA570002B3AD0033D012D00
:100C200037D86279AAB394F8F22092BB84F8F42002
:100C3000012284F8F3200720984704F13C0518228C
:100C40000021284605F07FF8E26A531E0121022B9D
:100C500094F8243084F83C1028BF0A4684F85120C8
:100C600033B1A36A5A1E022A28BF0B4684F85230B9
:100C7000A278002384F85030042A1BD8DFE802F061
:100C80006C0D223252000025C4E70225C2E703257D
:100C9000C0E7002384F8F330CFE7C4E91063C4F859
:100CA000E4300223012284F83C30802384F8312090
:100CB000A4F84830A378002B51D1636B002B5FD18F
:100CC00000205CE0022384F83130032384F83C30B8
:100CD0002369A4F848300023C4F8E430E3682664AC
:100CE0006364E7E763696364A369A4F848306379E0
:100CF000B3B194F8F2309BB994F8F43083B1022385
:100D000084F8503004212046FFF7B4FE0028D1D1EA
:100D1000052384F8313004F1D403C4F8E430C9E782
:100D20000323F6E7E3696364236AA4F84830637930
:100D300083B194F8F2306BB994F8F43053B10223D4
:100D400084F8503004212046FFF794FE0028B1D1EA
:100D50000623DEE70423DCE784F83130AAE7D4F881
:100D6000E4102A4604F15400FFF780FE38B994F8E5
:100D7000301094F85400FFF77BFE00289DD0F8BD9A
:100D800094F8310098479BE70820F8E70388112B77
:100D900010B50C460AD0262B1FD0102B05D1C37BD3
:100DA000012B02D18388A1F8E83010BD002283888E
:100DB00081F8F220B1F8E8209A42F6D10B79002BA5
:100DC000F3D101212046FFF7E0FE0028EDD0A36B10
:100DD000002BEAD0BDE810401847037A013B012BF5
:100DE000E3D8897805230131B1FBF3F303EB8303E7
:100DF000C91AC9B2E6E775DF704776DF70477ADF58
:100E000070477BDF70470000034B1A8882420CBF9B
:100E100018460020704700BFF0270020024B9B6956
:100E200003B11847704700BFD427002073B585B2BF
:100E30002846FFF7E9FF044670B1164E027A337B6D
:100E40009A420BD200F10A012846FFF7D4FFE8B11D
:100E5000112801D0FFF7E2FF02B070BD002303723A
:100E6000337C43B13B212846FFF7C7FF30F008032E
:100E700001D0FFF7D3FF7369002BEDD000228DF86E
:100E80000420ADF8065001A89847E5E7237A01331E
:100E90002372E1E7D427002013B50B46497A0246B6
:100EA0000E4869B9D0E901101C7A002C18BF014620
:100EB0005868FCF734F808B1FFF7B0FF02B010BD76
:100EC000002119724369002BF8D001218DF804101C
:100ED000ADF8062001A89847F0E700BFD42700200E
:100EE0004B8802889A4213D842889A4210D380884D
:100EF0008A8840F2F313984294BF031AC31A9342AC
:100F000006D800F2F310904234BF00200120704751
:100F1000002070470388122B70B5014659D004D8C1
:100F2000102B1ED0112B44D070BD502BFCD12F4B59
:100F3000C288DB899A42F7D1038A022BF4D18688D2
:100F40003046FFF761FF05460028EDD001F11200A1
:100F500000F0C6F938BB6868FBF7F9FF0028E3D05A
:100F600009E0C37B012BDFD14FF6FF70FFF74CFF89
:100F7000054620B90420BDE87040FFF74FBF1C4A6A
:100F80008E880680002303721368C0F80A30536805
:100F9000C0F80E3010310A30FFF7A2FF134B687211
:100FA000DB89002BC0D129463046BDE87040FFF7F1
:100FB00073BF8088FFF728FF04460028B4D040683C
:100FC000FBF7C5FF08B1FFF729FF4FF6FF7323803A
:100FD000AAE786883046FFF717FF05460028A3D00A
:100FE00008310A30FFF77CFF6872DCE7D427002065
:100FF00004280020F8B5064648B305460FCD154F26
:101000003C460FC495E8070084E807003068124C9E
:101010003C60B0B1FFF7F3FEC0B9326813682360DB
:10102000536863600D480E4A4FF6FF7303800D4B03
:1010300040F8043F0021FBF767FF002818BF03209A
:1010400004E02046FFF7DDFE0028EBD0F8BD0E20BF
:10105000FCE700BFD427002004280020F027002050
:101060002D0E020010280020F7B5174601900E46FD
:1010700091B1019C6CB100252C46294601A8FCF7D2
:10108000C2FF18B13946A8B2B04701340135142D5A
:10109000F3D1204603B0F0BD0C46FAE70AB1FCF7E5
:1010A00091BFFCF7A6BF73B50191019C06466CB1D8
:1010B00000252C46294601A8FCF7A5FF18B106EB30
:1010C000440301349D800135142DF3D13046346042
:1010D00002B070BD2DE9F04303888488103B8DB0C9
:1010E0000A2B1ED8DFE803F006361D1D1D1D1D1D31
:1010F0001D573B002C4DAB68DB4300936968684685
:10110000FCF7E6FF009901A8FFF7CDFF0DF10808F5
:101110000027019B9F4207D3132C12D90420FBF711
:10112000FFFD0DB0BDE8F08338F8029B00260136C4
:10113000494605EB8600FCF75CFF1E2EF7D1013710
:10114000E7E721461948FCF73DFF19482146FCF71F
:1011500039FFE6E715482146FCF74BFFE1E7027A45
:1011600014483F2A4FEA1215214694BF002201225B
:10117000FFF794FF022D94BF002201220E48214662
:10118000FFF78CFF012D0D4894BF0022012221465C
:10119000FFF784FFC5E7037A002BC2D1427A0548E6
:1011A000C2F3C0022146F3E730280020382800208F
:1011B000342800204828002044280020402800200F
:1011C0001328014602D80248FCF71DBF00207047D3
:1011D00034280020FFF7F4BF10B50446FFF7F0FFF6
:1011E00038B104482146FCF70EFF002814BF022046
:1011F000012010BD3828002010B50446FFF7E0FF9D
:1012000028B121460248BDE81040FCF7FCBE10BDE5
:101210004028002010B50446FFF7D2FF28B1214630
:101220000248BDE81040FCF7EEBE10BD4428002087
:1012300010B50446FFF7C4FF28B121460248BDE8B7
:101240001040FCF7E0BE10BD4828002070B50A4EE3
:10125000054630460C46FCF7D6FE58B12846FFF747
:10126000AFFF38B10734294606EB8400BDE8704073
:10127000FCF7C9BE002070BD30280020F8B50B4F28
:10128000054638460C461646FCF7BDFE60B12846BA
:10129000FFF796FF40B107343246294607EB84003A
:1012A000BDE8F840FFF7FABEF8BD00BF30280020C7
:1012B000F8B50A4D04460E46014628461746FCF787
:1012C000A2FE48B1063405EB84043A466068314614
:1012D000BDE8F840FFF7C8BEF8BD00BF30280020C9
:1012E000007800F001007047A0DF7047A1DF704771
:1012F000ADDF7047B3DF7047B4DF704710B5044609
:10130000408800F023FDA0802046BDE8104001F099
:101310004FBD30B587B005460C461422002101A808
:1013200004F011FD072301A88DF80430ADF8065034
:101330000394FFF7E3FF07B030BD000070B586B03F
:1013400005461422002101A804F0FDFC4FF6FF73AE
:101350009D42ADF806503FD0284600F0E7FB11282B
:10136000044633D016D8D8B10B2820D02046FDF73C
:1013700039FC1A4E1A4902461A48361AF60836043B
:1013800046F001002B46FBF764FB21462846FFF799
:10139000C0FF03E043F202039842E7D1002216E0C7
:1013A0000E238DF8043001A8FFF7A8FFF6E70F23FE
:1013B0008DF8043009480B4B0B49C01AC0080004D3
:1013C0002A4640F00200FBF73BFBECE70122074B0B
:1013D00028461978FFF752FF06B070BD305F020053
:1013E00001690200B05E020081680200B32800209B
:1013F000FFF7A4BF024B034918780022FFF758BF3C
:10140000B5280020091402002DE9F047464D88B0A8
:1014100029780446FFF71AFFA846064600287CD123
:10142000204600F0E7FB0828054632D016D808B35E
:1014300006285BD02846FDF7D5FB3C4F3C490246C9
:101440003C483F1AFF083F0447F001002346FBF7E2
:1014500000FB29462046FFF75CFF09E043F2020348
:10146000984205D043F20143984259D01128E1D166
:10147000012546E03146142203A804F064FC102341
:1014800003A88DF80C30ADF80E400126FFF736FFAB
:10149000EEE70DF10600FFF72DFF354601274FF06F
:1014A000020A0DF10809BDF80630BB421ED9002220
:1014B00049463846CDE903A9FFF71EFFB0B9BDF88C
:1014C00008303DB942F605255B1B5D425D410137A1
:1014D000BFB2E8E742F602129342F8D101AB03AA89
:1014E000394620460493FFF703FF30B1204600F051
:1014F0002DFC00F0ABFB002503E0BDF80430002B11
:10150000F4D00D4B2A4619782046FFF7B7FE98F81D
:10151000001032462046FFF7B1FE08B0BDE8F08764
:101520002046FFF70BFFA3E7B6280020305F02003C
:1015300052690200B05E0200B528002013B50446CF
:1015400000F004FC00236A46092101F051F8052847
:1015500005D1044B012219782046FFF78FFE02B017
:1015600010BD00BFB128002008B5084B0849187805
:101570000022FFF79DFE024630B9064B0649187857
:10158000BDE80840FFF794BE08BD00BFB4280020A6
:10159000E5150200B12800209D15020037B504466C
:1015A00004220021684604F0CEFB42F6A623ADF8E3
:1015B00000300A4B18680190012501AA69462046AF
:1015C0008DF80250FFF790FE28B9054B2A4619788E
:1015D0002046FFF753FE03B030BD00BF206B020072
:1015E000B028002070B5012186B006462A48FCF7D5
:1015F00040FD0446BFF35F8F002849D1304600F01C
:1016000039FA862805461ED017D8A8B3112841D02C
:101610002846FDF7E7FA214C214902462148241AC1
:10162000E408240444F001003346FBF712FA29468B
:101630003046FFF76EFE002403E043F202039842B7
:10164000E6D122461AE02146142201A804F07BFBD1
:1016500006238DF804301148124B1349ADF806608B
:10166000C01AC0080004324640F00200FBF7E8F957
:1016700001A8FFF743FEE4E7012402460B4B304686
:101680001978FFF7FBFD1CB9BFF35F8F024B1C609D
:1016900006B070BD0122F1E7AC280020305F0200E7
:1016A000C7690200B05E020092690200B4280020FF
:1016B00038B503780446A3B94088FFF73FFE658834
:1016C000284600F085FA28B1064B012219782846F1
:1016D000FFF7D4FD6088FFF731FFBDE83840FFF722
:1016E00043BF38BDB528002037B50378082B044622
:1016F00030D1427A72BB057A072D1BD0082D2DD030
:10170000012D27D180886A46294601F0AFF908BB30
:10171000019B1B78F3B1A08800F046FB4FF6FF73E6
:10172000984217D0114B2A461978FFF7A7FDFFF70B
:1017300061FE0FE0808800F037FB4FF6FF739842A0
:10174000044607D00A4B01221978FFF797FD20467F
:10175000FFF7F4FEFFF708FF03B030BD054B196833
:101760000129F7D1BFF35F8F1A60F3E7B528002096
:10177000B4280020AC28002073B50123ADF8003058
:1017800009238DF80230144B002422460E461978A6
:10179000CDF8034005468DF80740FFF76FFD0F4B6E
:1017A0000F492846A64218BF1946019100F0CEFA0B
:1017B0002246694600F088FF60B1FDF713FA094B35
:1017C0000949024609481B1ADB081B0443F00200C2
:1017D000FBF736F902B070BDB1280020286B02007B
:1017E000246B0200305F0200046A0200B05E020057
:1017F00070B503888488502B86B0054638D00ED843
:10180000352B48D0362B00F08C80584B584918782F
:101810000022FFF74DFDFFF7EDFD06B070BD522B26
:1018200022D0542BF1D11422002101A804F08BFA0C
:10183000112320468DF80430ADF8064000F086FAFA
:10184000ADF8080000F002FA4A4B20461978002251
:10185000FFF714FD484B204619780022FFF70EFDD4
:1018600001A8FFF74BFDD0E72046FFF767FDCCE767
:10187000037B012BC9D1827A012AC6D1018942F6A4
:1018800002139942C1D13D4B20461978FFF7F6FC6F
:10189000FFF76AFEB9E73A4E20463178FFF7D6FCEB
:1018A0000028B2D0002231782046FFF7E7FCEA8812
:1018B000B2F5857F0AD072B13248334BC01AC008E6
:1018C0000004324940F00200FBF7BAF8002120463C
:1018D000FFF752FF99E76A89012A09D029482A4B64
:1018E0002B49C01AC008000440F00200FBF7A8F81A
:1018F000AE89012E07D02348234BC01AC00800042C
:1019000032462449DEE7E98900222046FFF7EEFC53
:101910000028DBD1204B324619782046FFF7AEFC79
:1019200073E71D4E20463178FFF790FC00283FF406
:101930006CAF317800222046FFF7A0FCEE8836B16C
:101940001048114BC01AC00800043246B9E7EA89B2
:10195000012A05D00B480C4BC01AC0080004D0E780
:10196000297C003918BF0121B1E700BFB32800204E
:10197000F1130200B6280020B5280020B42800206A
:10198000B0280020305F0200B05E0200616A0200F1
:101990009B6A0200D56A0200B2280020AFDF7047C0
:1019A000B1DF7047B2DF7047B3DF704710B5044650
:1019B000808800F0F9F960802046BDE8104001F011
:1019C000F9B90000F0B5204B204E93E8030089B030
:1019D00001AD85E803004FF6FF773088B84217D095
:1019E0000022294600F070FE044638B3142200217C
:1019F00003A804F0A8F93388ADF81030112C07D0F3
:101A0000862C07D106238DF80C3003A8FFF7CEFFF4
:101A100009B0F0BD2046FDF7E5F80D4D33880D49BE
:101A200002460D482D1AED082D0445F00100FBF784
:101A300010F807238DF80C300594E6E7308800F0A5
:101A4000B0FE3080C9E700BFD86C0200B828002083
:101A5000385F02002C6B0200B05E0200044B1A8853
:101A60004FF6FF739A4201D0FFF7ACBF704700BF3B
:101A7000B82800202DE9F347804600F067F94FF6BB
:101A8000FF739842074648D0254E264BDFF898A0B2
:101A9000F61AF608360446F001064FF001094A46E8
:101AA0006B460821384600F0E5FF09F101091FFAED
:101AB00089F9054660BB01990A46032342F8043BB5
:101AC00006314046FFF76EFF044648B93A46082102
