:020000021000EC
:10C0000000600020A5C301005DC301005FC3010003
:10C0100061C3010063C3010065C3010000000000AB
:10C0200000000000000000000000000067C30100E5
:10C0300069C30100000000006BC301006DC3010073
:10C04000A5EA01006FC3010085EC010011F30100B6
:10C050006FC301000000000035EB01006FC3010059
:10C060006FC301006FC301006FC301006FC3010004
:10C070006FC301006FC301006FC301006FC30100F4
:10C080006FC30100FDCE01006FC301006FC301004B
:10C090006FC301006FC30100792802006FC3010064
:10C0A0006FC301006FC3010000000000000000002A
:10C0B0006FC301006FC3010000000000000000001A
:10C0C0000000000000000000000000000000000070
:10C0D0000000000000000000000000000000000060
:10C0E0000000000000000000000000000000000050
:10C0F0000000000000000000000000000000000040
:10C10000000000000000000000000000000000002F
:10C11000000000000000000000000000000000001F
:10C12000000000000000000000000000000000000F
:10C1300000000000000000000000000000000000FF
:10C1400000000000000000000000000000000000EF
:10C1500000000000000000000000000000000000DF
:10C1600000000000000000000000000000000000CF
:10C1700000000000000000000000000000000000BF
:10C1800000000000000000000000000000000000AF
:10C19000000000000000000000000000000000009F
:10C1A000000000000000000000000000000000008F
:10C1B000000000000000000000000000000000007F
:10C1C000000000000000000000000000000000006F
:10C1D000000000000000000000000000000000005F
:10C1E000000000000000000000000000000000004F
:10C1F000000000000000000000000000000000003F
:10C20000354936480A1A02D0072291438D463449EF
:10C2100034480A1A06D00722914381F30988022282
:10C2200082F3148830483149314A00F044F83148EB
:10C230003149324A00F03FF831483249324A00F081
:10C240003AF832483249334A00F035F83248334937
:10C25000334A00F030F833483349344A00F02BF8C1
:10C2600033483449344A00F026F83448344900222F
:10C2700000F02CF833483449002200F027F8334806
:10C280003349091A082902DB002202604160314A61
:10C2900090471F481F49884205D00268043003B404
:10C2A000904703BCF7E700208646EC4600200021BB
:10C2B000294A9047FEE7884207D0521A05D00378F2
:10C2C00001300B700131013AF9D17047884202D038
:10C2D00002700130FAE7704700600020005800202B
:10C2E0000060002000600020884B02009C1E00209F
:10C2F000E01E0020ECC30100ECC30100803002000E
:10C30000884B02009C1E00209C1E0020E031020091
:10C31000E0310200E0310200E0310200E0310200D1
:10C32000E0310200E0310200E0310200864B020001
:10C33000CC4B0200E01E0020E01E0020E01E00208A
:10C340006829002068290020682900206829002029
:10C3500068310020BBC30100E12C0200FEE7FEE7CC
:10C36000FEE7FEE7FEE7FEE7FEE7FEE7FEE7FEE7A5
:10C3700009480068094909680A280AD1002908D132
:10C38000074802686FF070031A404FF040031A43E9
:10C39000026000F009B80000300100103401001004
:10C3A000E40E0040FFF7E4BF0B484FF0070188435D
:10C3B00085460A488047FFF723BF094809490A4ACA
:10C3C000884207D0521A05D0037801300B70013132
:10C3D000013AF9D1704700000060002071E60100C9
:0CC3E000CC310200881E00209C1E0020B2
:10C3EC00F0B595B01D46164608460C4602F0C2F84C
:10C3FC001A9B0D93CDE9086500252B46082205A94B
:10C40C0020460A958DF82C500C9502F0D0F8079B1D
:10C41C000293069B03939DF814308DF8115003F092
:10C42C000302012A1DD1BDF81420059DC3F3C203DC
:10C43C00C2F383168DF81030B20008230EA92046E3
:10C44C0002F0B5F8C5F3952508AB0093324602AB64
:10C45C000EA9284600F09EFB204602F08FF815B07E
:10C46C00F0BD022AF8D1BDF81650C3F3C203C5F3D0
:10C47C0089158DF810300827082D2E4628BF082660
:10C48C003B4632460EA9204602F091F8AD1B08AB94
:10C49C0002AA31460EA8374400F0E0FB002DEBD188
:10C4AC00DAE7704707B5044B0093044A4023FFF7C3
:10C4BC0097FF03B05DF804FB1DC50100E11E0020D1
:10C4CC0030B5104D0FCD89B06C460FC495E80F00F8
:10C4DC0084E80F004FF0FF330622CDE90023CDE9AD
:10C4EC00023309484FF0EB7300226946069302F0C1
:10C4FC0059FA08B100F00EFC044B00221A7009B076
:10C50C0030BD00BFE03102009C1E0020E01E002068
:10C51C0038B50D4B0D4D002018700D4804782D5D6D
:10C52C00D2B21C4665B1043003F0BCFB08B100F07C
:10C53C00F1FB084B1A7812B12378002BFBD038BDD5
:10C54C000C3002F0C9FDF1E7211F0020C0250020AE
:10C55C009C1E0020E01E002008B50848084A0378FD
:10C56C00D35C33B1043003F00DFBBDE80840FFF79A
:10C57C00A7BF0C3002F046FDF7E700BF9C1E002061
:10C58C00C0250020FFF79CBF08B5FFF7FBFF044850
:10C59C00042100F06FFA034B01225A7108BD00BF51
:10C5AC00BC310200B01E00200378024613F00400D8
:10C5BC0006D003F00300012803D0022809D0012083
:10C5CC0070470B6812880233C2F3831213440B605A
:10C5DC0070470B685288023303EB92130B60EEE743
:10C5EC002DE9F04F87B000230446861C0DF107009F
:10C5FC000F4615468DF8073000F02AFC404A51686A
:10C60C003960936803F580735B1A924602F21C47FB
:10C61C0002F5836902F21448B3421AD30020002DAC
:10C62C0069D004F00F039B0143F0050363F30F0083
:10C63C00DAF80430DAB203321E444AF822009DF8CC
:10C64C000700CAF8046000F027FC012007B0BDE821
:10C65C00F08F0121384601F0CCFA484601F0E1FA9E
:10C66C00404601F0DEFADAF808000290C0B203305E
:10C67C000AEB800002A9FFF797FF029B30BBDAB2EE
:10C68C000AEB8202D16803919A1C0133DBB20AEBEC
:10C69C0083030292D3F80CB001F00303012B22D0D8
:10C6AC00022B15D08346404601F0BEFA10B1029B16
:10C6BC00CAF808305946384601F09BFADAF80830C7
:10C6CC00DAF8042003F580739B1AA5E7D8B2CEE7FD
:10C6DC00BDF80E30C3F3891303334FEA1B4B02EB47
:10C6EC0093030293DFE7BDF80C30C3F383134FEAD7
:10C6FC001B4B1344F5E7A40544F0060098E700BF74
:10C70C00F41F0020064B074810B501221A7001F0E7
:10C71C00EAFE044610B9044801F053FF204610BD50
:10C72C00F41F0020D83002003432020030B50A4C1D
:10C73C0071B10A4A0A49121BD20800239A4201D14C
:10C74C00002030BD31F82350854202D00133F5E78B
:10C75C00034654F83300F4E7EC300200BC3102001D
:10C76C009C1E0020094B013903EBC000032909D89A
:10C77C00DFE801F00A0204060420704700797047D4
:10C78C00407970470020704702207047EC3002005F
:10C79C00034BD3E90130C31A58425841704700BFCC
:10C7AC00F41F00202DE9F04186B0FFF7F1FF05469C
:10C7BC00002840F0E680744CC4F81804BFF34F8F87
:10C7CC00A3680293DBB2033304EB830002A9FFF7E7
:10C7DC00EBFE029B18B1D4F81824002A55D0DAB21B
:10C7EC00991C013304EB8202DBB204EB8303D268A5
:10C7FC00DB68049302F00303022B039202914FD1E6
:10C80C00BDF80E306148C3F38917502F3E4628BF40
:10C81C00502666F38F1306F10801ADF80E3001F0C7
:10C82C007AFE0546002800F0978001F0A3FE002355
:10C83C0003A90822284601F0B0FE0299CB43DBB2D3
:10C84C000133C9B20331B6EB830F4FEA830804EB13
:10C85C00810122D908234246A6EB0806284601F09E
:10C86C009CFEF6B24A4908F108033246284601F00C
:10C87C0094FE029B033703EB97070297D4F8183406
:10C88C00002B41D1D4F8106451E062689A4299D8D7
:10C89C00A260284606B0BDE8F08108233246E5E7E1
:10C8AC00012B59D1BDF80C303848C3F3831106293C
:10C8BC0028BF062161F3891302318900ADF80C30D1
:10C8CC0001F029FE0546002846D001F053FE002356
:10C8DC00082203A9284601F060FE0026BDF80C20B2
:10C8EC00C2F38312B300964203F10803C6D2029935
:10C8FC004A1CC9B20331029204EB8101042228467E
:10C90C0001F04BFE0136E9E7284601F037FEFFF750
:10C91C003FFF80F00105EDB2BBE7F3685B7923B113
:10C92C00336829461B6830469847F3681E68002E0A
:10C93C00F3D1284601F022FE0DF107008DF80760B7
:10C94C0000F086FAD4F818340BB9029BA3609DF85A
:10C95C00070000F0A1FADAE7D4F8104454B90D4BF3
:10C96C000D480E49C01AC008000440F0020000F047
:10C97C005DF8CCE7236820469B689847E3681C6801
:10C98C00ECE7002585E700BFF41F0020D83002003B
:10C99C0000200020EC3002001C3102001D3202008D
:10C9AC002DE9F34704460E46924601A9012218468A
:10C9BC009946FFF715FE1B4F10B3019D4FF0000871
:10C9CC00AA1CC84508EB020123D11748002101F02D
:10C9DC00C9F880F31000000440EA1440E4006B1C1A
:10C9EC0004F03804DBB2EDB244F0010407EB83032E
:10C9FC00033544EA881444EA8624D86047F8254075
:10CA0C003B781BB1FFF7CEFE0028FBD102B0BDE88E
:10CA1C00F087C9B207EB81015AF82830CB6008F1D6
:10CA2C000108CEE7F41F00201024002000231A4632
:10CA3C00FFF7B6BF07B50123019201AAFFF7B0FFBC
:10CA4C0003B05DF804FB07B5CDE9002302236A4669
:10CA5C00FFF7A6FF03B05DF804FB1FB5CDE901237A
:10CA6C00069B039301AA0323FFF79AFF05B05DF819
:10CA7C0004FB000030B50F49D1F810240346002008
:10CA8C00144634B9DC6820714AB9C1F810342260FC
:10CA9C0030BDE4682579854206D02468F1E7D26878
:10CAAC00116821601360F3E701300A28E8D14FF0D8
:10CABC00FF30EDE7F41F0020084A38B50123D2F807
:10CACC00104413701D4604B938BDE3685D712368CA
:10CADC0020465B689847E3681C68F4E7F41F002065
:10CAEC0010B5037A052B0C460FD0437A23B1084AB4
:10CAFC000849204601F0FBF80749204601F0F7F8F9
:10CB0C002046BDE8104001F0E7B8002AF8D0F3E762
:10CB1C00403202004532020065320200C38873B510
:10CB2C0004460D4633B1144A00921449144A28465F
:10CB3C0001F0DDF8217A05291CD0637A4BB1A0886D
:10CB4C00FFF710FE0F4B104953F82020284601F038
:10CB5C00CEF8227A0D4BA08853F822600021FFF703
:10CB6C00E5FD0B4903463246284602B0BDE870404D
:10CB7C0001F0BDB802B070BD40320200503202006C
:10CB8C0048320200CC32020045320200F032020080
:10CB9C00683202002DE9F04385B01F460C9D00233E
:10CBAC0095F80C902B7306460C4690462946384651
:10CBBC00FFF7B4FFB8F1060F09D8DFE808F004124C
:10CBCC00181F283340003146284601F090F8002207
:10CBDC0029463846FFF784FF85F80C9005B0BDE870
:10CBEC00F08322683146284601F081F8EFE7D4E95A
:10CBFC0000233146284601F07AF8E8E7A368009351
:10CC0C003146D4E90023284601F071F8DFE7E368E8
:10CC1C000193A36800933146D4E90023284601F020
:10CC2C0066F8D4E723690293E3680193A368009341
:10CC3C003146D4E90023284601F059F8C7E7636967
:10CC4C00039323690293E3680193A368009331462D
:10CC5C00D4E90023284601F04AF8B8E708292DE961
:10CC6C00F74F80460E4617461C463CD800251B7BCA
:10CC7C002573214610460193FFF750FFDFF884A07F
:10CC8C00DFF884B0AE4231D918F805205946204659
:10CC9C0001F02DF80135082DF4D11949DFF86CA0FD
:10CCAC00DFF86CB0204601F022F84FF000094E4539
:10CCBC0021D918F809507E2D03D8284606F016F90C
:10CCCC0000B92E252A465946204601F010F809F1E4
:10CCDC000109B9F1080FEAD1012221463846FFF7C4
:10CCEC00FFFE019B237303B0BDE8F08F5146204635
:10CCFC0000F0FDFFCEE75146204600F0F8FFE6E7D6
:10CD0C007C32020078320200723202007A32020067
:10CD1C007E3202001FB50021039001AA44F20100EB
:10CD2C00CDE9011100F004F805B05DF804FB00003A
:10CD3C0010B572B6FFF7C0FEFFF734FD0028FBD12B
:10CD4C00104B114C1149E41AE408240444F001007E
:10CD5C00FFF76CFE0E4B1B68DB0700D500BE0D49C0
:10CD6C0044F00200FFF762FEBFF34F8F0A490B4BF2
:10CD7C00CA6802F4E0621343CB60BFF34F8F00BF6D
:10CD8C00FDE700BFEC3002001C3102000F33020043
:10CD9C00F0ED00E01B33020000ED00E00400FA05AA
:10CDAC0008B50B4800F08EF80A4B0B49D3E9002369
:10CDBC001218D1E9000143F100038B4208BF8242F3
:10CDCC0003D212F1807243F100031046194608BDDC
:10CDDC00B81E0020B0240020C824002037B505461A
:10CDEC000C460A4801A900F0F1FD60B105704460E1
:10CDFC0001A9064800F014FE18B1054800F066F8C9
:10CE0C00002003B030BD0420FBE700BFB824002095
:10CE1C00B81E002038B5037F04460D4683B98261E5
:10CE2C00FFF7BEFF2369401941F10001C4E902017B
:10CE3C0003B1256121460020BDE83840FFF7CEBF85
:10CE4C00002038BD0023014603770120FFF7C6BF41
:10CE5C0070B5EFF3108672B60C4A946801239CB936
:10CE6C0093600B4B0B4DD3F8801029401160C3F825
:10CE7C008050D3F8841051604FF0FF32C3F88420F7
:10CE8C00047006B962B670BD0370FAE7D0240020B6
:10CE9C0000E100E0FC06FFBD084B9A6810B55AB1E2
:10CEAC0050B9EFF3108172B6054A1C6814605C68C7
:10CEBC005460986001B962B610BD00BFD024002048
:10CECC0000E100E00368D3F80405704790F90430E2
:10CEDC00002B09DB5A09012103F01F0301FA03F3AC
:10CEEC004032024941F82230704700BF00E100E0B7
:10CEFC00024B034A1B681068184700BFE42400204B
:10CF0C00DC24002070B5064E0546002456F8043B80
:10CF1C000BB1284698470134042CF7D170BD00BFE3
:10CF2C00F4240020033080B240F2FE33984230B536
:10CF3C001FD8134B1A783AB91C895D892C440444C8
:10CF4C00A4B2B4F5806F0AD91A7DAAB99A8BDC8B7E
:10CF5C002244024492B2B2F5806F0DD801220A80AD
:10CF6C001446142202FB04335A89104458810020C1
:10CF7C0030BD48F20860FBE748F20660F8E700BFF6
:10CF8C00282500200B4A0C4B5188142000FB013142
:10CF9C00CB6833B90420496810700122074801F0AE
:10CFAC0009B907490523137002238B8001220968F4
:10CFBC000023F3E70C25002028250020881E0020E4
:10CFCC006425002007B5002305490093054A09682C
:10CFDC000548082301F058F803B05DF804FB00BFC6
:10CFEC006425002040330200881E002007B5002372
:10CFFC0001460093034A0448082301F045F803B0A6
:10D00C005DF804FB38330200881E002013B50023A2
:10D01C000C4600930146084A0848042301F034F8F2
:10D02C0038B90749142303FB04140123237402B0F9
:10D03C0010BD48F20D60FAE734330200881E002060
:10D04C002825002037B50A480A4B42689C88196885
:10D05C0053880325033305709BB2002000909B007E
:10D06C0001EB8401044801F00FF803B030BD00BFA0
:10D07C000C25002064250020881E002010B50146D8
:10D08C00044800F0A3FC1C220446002105F08FFF8D
:10D09C00204610BD502500204388033300EB83034A
:10D0AC0099420BD382884FF6FF739A4208D00388BB
:10D0BC0033B18068431C5842584170470220704776
:10D0CC000120704738B5144B14220D4602FB00307A
:10D0DC002B68446804F58051A3B15C88033403EBDE
:10D0EC0084048C4215D22368013312D02046FFF7FA
:10D0FC00D3FF012808D002280BD00028F1D12C60D6
:10D10C00012038BD0834ECE76388033304EB830457
:10D11C00E7E70020F5E700BF28250020426873B53B
:10D12C0004460D466AB3244BD9688A4229D31B693D
:10D13C009A4226D812F0030323D120490089098989
:10D14C0088421ED12068916888421AD11C494868CF
:10D15C00824203D900F5805082420DD389698A42FC
:10D16C000CD901F580518A4208D201222A80B3FAE7
:10D17C0083F0400902B070BD1A46F7E748F2096324
:10D18C00F5E700232B801E460196288801A9FFF79E
:10D19C0099FF30B92B8801339BB2012B2B80F3D92B
:10D1AC00E8E7019B226899689142EED16360034BDA
:10D1BC001B892381DEE700BF881E00200C25002080
:10D1CC00282500202DE9F8431C461D4B1B780646EC
:10D1DC000F46154673B382B37CB3DFF86C804FF007
:10D1EC001409A388012B02D948F2096020E009FB3D
:10D1FC0003F318F803302BB9A0882146FFF762FF20
:10D20C0020B92060A3880133A380EAE723681EB10C
:10D21C00998832889142EFD11FB119883A8891428E
:10D22C00EAD19A68C5E90023064B1B892B810020A3
:10D23C00BDE8F88348F20160FAE748F20460F7E7CA
:10D24C00042500200C2500202825002008B5074BBC
:10D25C005888191DFFF736FF18B1BDE80840FFF7D5
:10D26C00F1BEBDE80840FFF78DBE00BF0C250020C5
:10D27C002DE9F04FA44FDFF8B49289B00646B846BA
:10D28C003B6823B9A148494600F0DAFB3860D8F86E
:10D29C00005029784B1E052B07D8DFE813F022002D
:10D2AC007C007C000E010E01680148F20E64142211
:10D2BC00002103A805F07BFE41F61D539C4208BFDC
:10D2CC000024D8F8003004941A78013A052A00F2A8
:10D2DC00FA81DFE812F0E601EA010A021A022602DC
:10D2EC0030022EB18A4B00225A604FF40644DEE71E
:10D2FC002B79032B1DD8DFE803F015022B3685495B
:10D30C000B78022B08461AD00B7D022B4FF0010331
:10D31C0017D114225343C2180020C8545068FFF789
:10D32C0065FE03E001232B71FFF74CFE002800F093
:10D33C00BE80774B00225A6048F20D64B7E7002399
:10D34C00E7E7734A13700023536041F61D54AEE7B0
:10D35C0071497248002302222B718A8009680122CC
:10D36C0000F028FFE2E76C4C00262E712068694D16
:10D37C00FFF73CFE6A4BD4F800C05A881423534381
:10D38C00EA18EE5451682160A188C2F804C01181DA
:10D39C000222A280CAE7B5F814A0AA7DDFF874B106
:10D3AC00AEB1022AEB8806D9142101FB0AB1DA1CB2
:10D3BC00088902440A81142202FB0ABAC3F57F438E
:10D3CC00BAF80A20FD331344AAF80A308DE7142367
:10D3DC0003FB0AB318895C6804EB8004062A69D83D
:10D3EC00DFE802F0274E36441D5A040041F61D5466
:10D3FC00AA7DEB88022A06D9142101FB0AB1DA1C9A
:10D40C00088902440A81142202FB0ABAC3F57F433D
:10D41C00BAF80A20FD331344AAF80A3047E741480A
:10D42C00414900234360AB690360FFF777FE002896
:10D43C005BD00223AB75002300930423EA1821462A
:10D44C00364800F021FE002831D048F20D64CFE7B9
:10D45C002B69002B14BF03230123AB75002300930E
:10D46C0005F10C02042304F10801E9E70123AB7573
:10D47C000022EB8800922A699B0004F10C01DFE783
:10D48C0003290CBF05230623AB750023009304234B
:10D49C0005F10802E118D3E70623AB75224B198876
:10D4AC00204B5868FFF7B2FD04460028A0D109B004
:10D4BC00BDE8F08F48F20E649AE7002E7FF415AFAA
:10D4CC002B79012B34D0022B3FF43FAF002B7FF490
:10D4DC00ECAE02232B710DF10A01EB68039303A848
:10D4EC00CDE90466FFF71AFE10B948F20964DEE6CE
:10D4FC000498BDF80A108388EB8003882B81FFF712
:10D50C0085FD044629E000BF24250020502500207D
:10D51C00042500202825002064250020881E0020DA
:10D52C000C250020E82400206C2500201C25002060
:10D53C00DFF81CA203AA53463146A81DFFF742FE92
:10D54C00044670B9BAF804100498FFF75FFD04465E
:10D55C0048F209639C423FF4F8AE002C7FF4A7AE6E
:10D56C00A5E708223146504605F021FDF0E7002ED4
:10D57C007FF4BBAE714B1A7BB2B11E731A78013AB1
:10D58C00062A3FF692AE01A151F822F043D60100D3
:10D59C0069D6010087D601008DD60100B7D20100F3
:10D5AC0093D60100A5D601001A78072AE6D801A166
:10D5BC0051F822F0E1D5010089D5010089D501008F
:10D5CC0007D601001BD601003FD601003FD6010053
:10D5DC0003D601001A895A4901321A8100225A8055
:10D5EC001A730A78B2FA82F252099A720A7DB2FA66
:10D5FC0082F25209DA72012207E0524958688A888D
:10D60C004088033202448A8002221A70B6E74C4CDE
:10D61C005A884C49142505FB02420868546850602E
:10D62C008888108102200C608880002111740622E9
:10D63C00EBE70722E9E79A7A32B9DA7A8AB900225B
:10D64C001A705A805A6080E63D4900229A72CA6864
:10D65C00002AF2D1097C0029EFD05A80FFF7F6FDA1
:10D66C004FE70022DA72364A116A0029E7D192F8A4
:10D67C002420002AE3D00122EFE7FFF7E3FC40E788
:10D68C00FFF780FC3DE72E4A5B88142101FB032346
:10D69C005868FFF7ABFC34E700225A60FFF792FCA6
:10D6AC002FE700238DF80C300DE001228DF80C20B3
:10D6BC001A89ADF818209A88DB680593ADF81A2002
:10D6CC0000238DF81C3003A8FFF71CFC00264946EC
:10D6DC001D48C8F8006000F0DEF91C48012100F07C
:10D6EC0094FA00287FF4CCADE1E602228DF80C20F0
:10D6FC001A89ADF818209A88ADF81A20DA689B7D43
:10D70C0005929A1F53425341DBE703228DF80C20FC
:10D71C00DA88ADF818201A89DB68ADF81A20059361
:10D72C00D1E704228DF80C20DB88ADF818300023EB
:10D73C00ADF81A30F3E70523B4E700BF0C25002041
:10D74C00282500206425002050250020602500207D
:10D75C00702500204068FFF78BBD000008B5054818
:10D76C00012100F03AFA18B9BDE80840FFF780BD76
:10D77C0008BD00BF602500202DE9F3419846374BCA
:10D78C001B7806460D46002B5CD000295DD009881D
:10D79C004FF6FF7399425BD06B88002B58D06B68A7
:10D7AC009B0758D14AB92F890DF102013846FFF772
:10D7BC00B9FB30B102B0BDE8F08113885788ADF8E1
:10D7CC00023001A8FFF75AFC044660B9BDF80230DC
:10D7DC00234A142101FB032358890338C01B5881A9
:10D7EC0048F20760E6E780F8008000238375BDF8F7
:10D7FC00023083826B68036101211A4800F0F9F949
:10D80C002B882381B8F1030F6B88A38004BF0423FA
:10D81C00A3754FF0000508BF3368E06008BFA36133
:10D82C001148E780658101A900F0FAF836B1E36888
:10D83C0033600E4B75601B89B5723381FFF78EFF19
:10D84C000020B7E748F20160B4E748F20460B1E7A2
:10D85C0048F20360AEE748F20260ABE70425002013
:10D86C002825002020250020502500200C250020F4
:10D87C0073B50D460446C8B1C1B10DF10601FFF7F1
:10D88C004DFCB0B10C4BBDF806006668142202FBCF
:10D89C00003001210C3000F0ACF963682E600C33C1
:10D8AC006B600123A372002002B070BD48F20460CB
:10D8BC00FAE748F20960F7E72825002013B504467B
:10D8CC00A8B10DF10601FFF729FC98B10C4ABDF87F
:10D8DC000630142101FB0323DA6872B1A27A62B11B
:10D8EC00DA680020013ADA60A07202B010BD48F28A
:10D8FC000460FAE748F20960F7E748F20560F4E7DC
:10D90C002825002002230022FFF736BF18B103237D
:10D91C000022FFF731BF48F204607047114B1B78AF
:10D92C0013B50446ABB14FF6FF73984214D001A85F
:10D93C00FFF7A4FB98B10523037001230371C48086
:10D94C0001A9094800F06CF8FFF708FF002002B0AD
:10D95C0010BD48F20160FAE748F20360F7E748F2BD
:10D96C000760F4E7042500205025002007B5ADF82A
:10D97C000600ADF804100DF1060001A9FFF722FC1A
:10D98C0003B05DF804FB07B51346ADF806000A4674
:10D99C0000200DF10601FFF715FC03B05DF804FB48
:10D9AC0007B51346ADF806000A460DF10600002136
:10D9BC00FFF708FC03B05DF804FB20B119B1036854
:10D9CC000B600020704748F20460704737B550E890
:10D9DC00013F9DB2C48925448489A54228BF2D1BD3
:10D9EC000489A54202BFBFF32F8F002207E0C5EACE
:10D9FC00030540E80154002CE9D14FF001028DF8E9
:10DA0C0003200193019B9DF803200B6002F0FF03A0
:10DA1C0022B10B880068184403B030BD1846FBE7F0
:10DA2C000A884B889A4209D150E8012FC2EA024277
:10DA3C0040E80123002BF7D10120704700207047EC
:10DA4C0037B550E8023F1FFAA3F5C488A54202BFC0
:10DA5C00BFF32F8F00220DE0C48925448489A54291
:10DA6C0028BF2D1BC3EA054540E80254002CE8D121
:10DA7C004FF001028DF803200193019B9DF80320C8
:10DA8C000B6002F0FF0322B14B880068184403B00E
:10DA9C0030BD1846FBE70A884B889A4209D150E8FA
:10DAAC00022FC2EA224240E80223002BF7D10120C8
:10DABC0070470020704701F01F024B090121914073
:10DACC0000EB830000F065B84B0910B501F01F04A2
:10DADC000121A14000EB830000F04FF8E04000F082
:10DAEC00010010BD01F01F0301229A404B0900EB0D
:10DAFC008300D14300F065B84B0901F01F0150F8C9
:10DB0C002300C84000F0010070472DE9F0474F1E7C
:10DB1C007F0980460E460137002558F8254008EB52
:10DB2C008509E44394FAA4F4B4FA84F44FEA451A50
:10DB3C00202C06D10135AF42EFD834462046BDE843
:10DB4C00F0875444A642F5D921464046FFF7BCFF66
:10DB5C000028F3D0D9F80040E44394FAA4F4B4FAC2
:10DB6C0084F4E5E710B5034653E8000F0A4643E892
:10DB7C00002494F0000FF7D110BD10B5034653E804
:10DB8C00000F40EA010243E8002494F0000FF6D1A4
:10DB9C0010BD10B5034653E8002F42EA010043E8DC
:10DBAC00000494F0000FF6D110BD10B5034653E8F5
:10DBBC00000F00EA010243E8002494F0000FF6D1B4
:10DBCC0010BD10B5034653E8002F02EA010043E8EC
:10DBDC00000494F0000FF6D110BD10B5034653E8C5
:10DBEC00000F00EB010243E8002494F0000FF6D183
:10DBFC0010BD10B5034653E8002F02EB010043E8BB
:10DC0C00000494F0000FF6D110BD10B5034653E894
:10DC1C00002FA2EB010043E8000494F0000FF6D1B2
:10DC2C0010BD0121FFF7B5BF0021FFF7BEBF10B536
:10DC3C0090B1D0E9012301689B1ADBB20A60013B69
:10DC4C00DBB2FF2B026802D10020107110BD1168ED
:10DC5C004C1C14600B70F2E70E20F7E737B5054645
:10DC6C0000240DF107008DF80740FFF7F1F82A6842
:10DC7C006B68116899420ED9481E106011F8014C5E
:10DC8C00EB68298A01FB0434AB6811791B1ADBB2EF
:10DC9C00994238BF13719DF80700FFF7FDF8204635
:10DCAC0003B030BD37B5054600230DF107000C4617
:10DCBC008DF80730FFF7CCF82A681368591C1160EF
:10DCCC00E968641A298AB4FBF1F41C709DF807000A
:10DCDC00FFF7E2F803B030BD826810B504462AB1F4
:10DCEC0043690168006998470023A36010BD0EB416
:10DCFC0003B5039921B104AB01AA019300F076F8A6
:10DD0C0002B05DF804EB03B070470A2938B504463D
:10DD1C000D4602D10D21FFF7F8FFA3682268591CAC
:10DD2C00A160D554D4E901329A4204D32046BDE80F
:10DD3C003840FFF7D1BF38BD2DE9F84F9846DDE9E3
:10DD4C000A43154682460F460A464FF00109AA427D
:10DD5C000FD2C14538BFC14613F0010B01D16CB9CC
:10DD6C0000240126B8F1010F1BD908F1FF386E43CE
:10DD7C00F8E709F10109B2FBF5F2E8E79B070ED5CC
:10DD8C00B8F1000F0CBF30262026A145E9D2013C8A
:10DD9C0031465046FFF7B9FF002CF6D1E0E72026BC
:10DDAC00F3E7B7FBF6F39D42E1D9DFF83C80B7FB14
:10DDBC00F6F3504618F8031006FB1377FFF7A5FF90
:10DDCC003346AB42B6FBF5F6F1D2BBF1000F02D0F5
:10DDDC000CB1A14501D3BDE8F88F20215046013C80
:10DDEC00FFF793FFF4E700BF483302002DE9F74F2C
:10DDFC00054617468846002900F0428118F8011B99
:10DE0C0049B92B7B002B00F03B81284603B0BDE8C1
:10DE1C00F04FFFF761BF252940F0B780002698F836
:10DE2C0000302D2B424608F1010823D0302B24D092
:10DE3C002B2B25D000242A2B02F1010123D13B6886
:10DE4C001A1D1B683A601C440A4613782E2B26D1E7
:10DE5C0001324FF0000A104610F8011BA1F1300CF2
:10DE6C00BCF1090F1DD80A2303FB0A13A3F1300AD6
:10DE7C000246F0E746F00106D1E746F00206CEE78F
:10DE8C0046F00406CBE711F8013CA3F13000092859
:10DE9C00DBD80A2202FB0434303C0A46CBE74FF0B5
:10DEAC00000A12F8011B01F0FB0068289046F8D01C
:10DEBC00782909D86F290CD8632962D022D8252952
:10DECC0063D0582900F0888098F80030002B95D149
:10DEDC0097E770390829F7D801A353F821F000BF50
:10DEEC0067E00100D5DE0100D5DE0100F5DF0100A1
:10DEFC00D5DE0100D3DF0100D5DE0100D5DE010047
:10DF0C00E5DF0100642901D06929DDD13A68D2F836
:10DF1C000090111D89EAE9723960A2EBE9724FF0A9
:10DF2C00010B092A35DCD34538BFD3462CB1B9F1E6
:10DF3C00000F01DB720700D5013CB30702D5BAF123
:10DF4C00000F03D0F00701D44CBB0024B9F1000F33
:10DF5C002DDAC9F100092D212846FFF7D6FE06F06F
:10DF6C000302022A04D1BAF1000F01D11CBB002418
:10DF7C00CDE9004653460A2249462846FFF7DCFE07
:10DF8C00A2E73B681A1D19783A602846FFF7BDFED8
:10DF9C009AE70A230BF1010BB2FBF3F2C1E7A3459D
:10DFAC00D4D220212846013CFFF7AFFECCE7710705
:10DFBC00D5D52B21D0E7A345DAD230212846013C18
:10DFCC00FFF7A3FED2E73968CDE900460A1D3A6097
:10DFDC0053460A220968D0E739680A1D3A60CDE930
:10DFEC00004653461022F5E73B681A1D3A6016F0BE
:10DFFC000106D3F8009028D1B9F1000F03D04846A0
:10E00C0005F008F80646B44200D904BB09F1FF3903
:10E01C0019F8011F00293FF457AF2846FFF775FE8A
:10E02C00F6E728460136FFF770FE19F806100029AE
:10E03C00F7D1A642BFF448AF002C3FF445AF2021E6
:10E04C002846013CFFF761FEF3E70026EDE72021AF
:10E05C002846013CFFF759FED5E73B681A1D3A608C
:10E06C00302128461C68FFF750FE78212846FFF720
:10E07C004CFE00220823CDE90032214610227CE719
:10E08C0003B0BDE8F08F00BF2DE9F34188B93D4BDB
:10E09C003D483E4AC01AC0080E243D4B0094000473
:10E0AC003C4940F00100FEF7D8FC204602B0BDE828
:10E0BC00F0814AB9334B3448374AC01AC0080E2491
:10E0CC00334B00940004EBE7D0F800E0BEF1000FF6
:10E0DC0009D12C4B2C48314AC01AC00808242C4BAF
:10E0EC0000940004DCE74BB9264B27482C4AC01A95
:10E0FC00C0080924264B00940004D1E74768D7F8E0
:10E10C000480B3FBF8F708FB17374FB11D4B1E48C3
:10E11C00244AC01AC00809241D4B00940004BFE710
:10E12C008F0709D0174B18481F4AC01AC008102473
:10E13C00174B00940004B3E712F0030F09D0114BF6
:10E14C0011481A4AC01AC0081024114B009400043C
:10E15C00A6E7C768B9420BD305694C1E1C44AC42F8
:10E16C0006D8DEF80C40A44602B0BDE8F04160478A
:10E17C00044B05480E4AC01AC0081024044B0094E6
:10E18C0000048DE7EC3002004431020058330200E9
:10E19C00EE3402005D330200DA33020086330200F3
:10E1AC0099330200E03302000A34020022340200E8
:10E1BC0045340200F7B580B92A4B2B482B4AC01ABC
:10E1CC00C0080E242A4B009400042A4940F0010098
:10E1DC00FEF743FC204603B0F0BDD0F800C0BCF104
:10E1EC00000F09D11F4B2048234AC01AC00808242D
:10E1FC001F4B00940004E8E74AB91A4B1A481F4A0F
:10E20C00C01AC00809241A4B00940004DDE74768C3
:10E21C00D7F800E00EF1FF370F4209D0114B12482E
:10E22C00174AC01AC0081024114B00940004CCE704
:10E23C00C768B9420CD304694D1E0EFB0255A542AA
:10E24C0006D8DCF81040A44603B0BDE8F0406047A7
:10E25C00044B05480B4AC01AC0081024044B009408
:10E26C000004B2E7EC3002004431020058330200E3
:10E27C00013502005D33020086330200993302003F
:10E28C006C3402009234020029DF704728DF70479B
:10E29C0070B503689E6886B004460D466EB11422B4
:10E2AC000021684604F083FEA36805932379019549
:10E2BC002BB1012B0DD06846B04706B070BD0123C1
:10E2CC008DF8003023690293E36803936369049328
:10E2DC00F1E702238DF80030E3681B030293F5E7A6
:10E2EC00034B187A0122B0FA80F05A744009704737
:10E2FC008825002070B5244C244E237A25463BB942
:10E30C0023492448FFF79CFB306008B9606070BD5E
:10E31C00022334682B72237973B1012B25D020464C
:10E32C000321FFF7B5FF00232B726B6018491948C6
:10E33C00BDE87040FFF7AFBBD4E90523D21AB2F5A4
:10E34C00805FD4E9031028BF4FF480529208012A51
:10E35C0038BF012219441844FFF796FF014650B10B
:10E36C001128DCD101232B72D1E7D4E90303184423
:10E37C00FFF78CFFF2E72B7C002BC8D1BDE8704077
:10E38C00022000F009B800BF88250020A02500203D
:10E39C009C2500207825002038B5831E012B45D8FC
:10E3AC00234C237A002B41D0022B09D1032830D0E7
:10E3BC00204B00221B68E2601A793AB1012A22D064
:10E3CC00637C7BBBBDE83840FFF794BFD3E90512F3
:10E3DC008D1AB5F5805F94BF521902F580529A617F
:10E3EC009142EDD102284FF0000308BF1946237269
:10E3FC00104B18BF0D211868FFF74AFF0E490F4844
:10E40C00FFF749FBDCE71A6901321A615B699A4232
:10E41C00E7E7E3680133082B01D8E360D0E700237A
:10E42C00E360DFE7BDE8384004F0F6B938BD00BF63
:10E43C0088250020A02500209C2500207825002080
:10E44C0000F0FD03012B08D1044B00225A74421E2C
:10E45C00504250411874FFF74DBF7047882500207B
:10E46C002DE9F84FB0F806A04579D2F800B09DF828
:10E47C0028900AFB05F5043D88460BEB0301A942E5
:10E48C0003F1040488BFA5EB030BB4FBFAF60746B3
:10E49C000AFB1644C2F800B04EB9AAEB04055D4560
:10E4AC0028BF5D46BBF1000F04D1BDE8F88F3F6873
:10E4BC00013EF1E7043408EB06003C442A46B9F16E
:10E4CC00000F0DD02146ABEB050B04F047FDDA45F0
:10E4DC002E443F6855464FF0000428BF5D46E1E7E7
:10E4EC0001462046EFE7FFF7A2BBF8B54679014697
:10E4FC00721E0546002393422D6803D30024A642C6
:10E50C0002D8F8BD0133F6E70F682846FFF7CAFBBF
:10E51C0001343946F3E72DE9F843068ACD1C07464A
:10E52C00FFF79CFB043E35440446B5FBF6F5F0B111
:10E53C004FF48073EDB28380C680013D0760814645
:10E54C004FF00008A84512D23846FFF787FB064665
:10E55C0048B163790133637108F10108C9F800000F
:10E56C0007608146EEE72046FFF7BFFF34462046A2
:10E57C00BDE8F88301210430FFF73BBB10B5012146
:10E58C0004460430FFF741FB10F0FF0F04D1204686
:10E59C00BDE81040FFF7A9BF10BD1FB503920022C4
:10E5AC00009203AAFFF75CFF05B05DF804FB1FB5F2
:10E5BC0003920122009203AAFFF752FF05B05DF807
:10E5CC0004FB836800225A60C3E904229A60DA6073
:10E5DC001A6070470B684A684360934208BF002377
:10E5EC00016008BF43607047436843B1026891689B
:10E5FC0052680B449342436004BF0023436070474E
:10E60C0010B50D49A1F59472914201D800200FE08C
:10E61C008C1AE30F03EBE4035B1002EBC30452F818
:10E62C003330834205D802D204F10802ECE760686B
:10E63C0010BD2146E8E700BF1C3A020008B5FFF701
:10E64C00DFFF024B002808BF184608BDE038020067
:10E65C00034B1868A0F10A0358425841704700BF99
:10E66C003001001008B5FFF7F3FF28B1594B5A4A97
:10E67C001B68C3F342331360FFF7EAFF40B14FF05E
:10E68C0080430022C3F80C21C3F81021C3F83825AD
:10E69C00FFF7DEFF002846D04FF080524F4BD2F8E8
:10E6AC000414C3F82015D2F80814C3F82415D2F8B2
:10E6BC000C14C3F82815D2F81014C3F82C15D2F882
:10E6CC001414C3F83015D2F81814C3F83415D2F852
:10E6DC001C14C3F84015D2F82014C3F84415D2F812
:10E6EC002414C3F84815D2F82814C3F84C15D2F8E2
:10E6FC002C14C3F85015D2F83014C3F85415D2F8B2
:10E70C003414C3F86015D2F83814C3F86415D2F871
:10E71C003C14C3F86815D2F84014C3F86C15D2F841
:10E72C004424C3F87025FFF793FF48B14FF08043A2
:10E73C00D3F80024D20744BF6FF00102C3F80024C1
:10E74C00274B1B680A2B07D1264B1B6823B1264A83
:10E75C00136843F00F0313604FF01023D3F800221B
:10E76C00002A03DBD3F80432002B2FDA1F4B0122D3
:10E77C00C3F80425D3F80024002AFBD04FF0102254
:10E78C001521C2F80012D3F80024002AFBD04FF058
:10E79C0010231522C3F80422144B1A46D3F8001484
:10E7AC000029FBD00021C3F80415D2F80034002B4B
:10E7BC00FBD0BFF34F8F0E490E4BCA6802F4E062D8
:10E7CC001343CB60BFF34F8F00BFFDE70A4B0B4ADF
:10E7DC001A6008BD440200103C05004000C0004017
:10E7EC003001001034010010E40E004000E0014044
:10E7FC0000ED00E00400FA05C01E00200090D003DC
:10E80C0038B5074C051E04F1080318BF1C462368D5
:10E81C002BB11A6822605B6828469847F7E738BD29
:10E82C00AC25002020B9054B01225A70FFF7E8BF38
:10E83C00012802D1014A9070F8E77047A425002006
:10E84C0020B9034B01225A70FFF7DABF704700BFA3
:10E85C00A425002038B50E4C2378B3B90D4863605D
:10E86C00A3602361E36000F0E5F8054603F0E4FFE4
:10E87C0008B900F0EBF801232370074BD3F80034F0
:10E88C000BB10123A370284638BD8525F5E700BFE1
:10E89C00A425002031E801000000014037B50D4CE3
:10E8AC0000230DF107008DF80730FEF7D1FAE3686D
:10E8BC00013BE360E36833B9074BD3F8005415B957
:10E8CC0000F0D6F8A5709DF80700FEF7E5FA03B046
:10E8DC0030BD00BFA425002000000140012813B565
:10E8EC000CD0032820D038B9124B0122C3F8802059
:10E8FC00BFF34F8FBFF36F8F02B010BD0E4C0023D0
:10E90C000DF107008DF80730FEF7A2FA23780BB94A
:10E91C00FFF7A0FFE3689DF807000133E3600123D4
:10E92C00A370FEF7B9FAE7E700F090F8FFF7B6FF2F
:10E93C00E2E700BF00E100E0A42500201FB503784A
:10E94C008DF800304368019383688DF80830C368F4
:10E95C00054A0393054B684653F8213052F82110B1
:10E96C00984705B05DF804FBB8250020BC250020B5
:10E97C001FB503788DF800304368019383688DF8D8
:10E98C000830C368054A0393054B684653F8213099
:10E99C0052F82110984705B05DF804FBB82500200B
:10E9AC00BC250020F0B5194B90F800C091F81DE083
:10E9BC0043F82C20164B16460A6943F82C20154BAD
:10E9CC0003F80CE00C4607460FCC89B06D460FC51A
:10E9DC0094E80F0085E80F00CDF810C0BEF1000FD1
:10E9EC0009D0002E0C4A694608BF3246381D01F08A
:10E9FC0005F809B0F0BD002E084A694608BF32463A
:10EA0C0007F10C0000F048FAF3E700BFBC2500202A
:10EA1C00B8250020C025002049E901007DE901004E
:10EA2C0000F18040002382B0036003680193019BD6
:10EA3C0002B07047044B0246187918B91A600122CB
:10EA4C009A80704785207047C4250020074B1A68B0
:10EA5C00D20704D4C02283F8002301221A604FF09D
:10EA6C0080430122C3F81825704700BF00E100E085
:10EA7C004FF0804208B50223C2F808334FF482707D
:10EA8C00FFF7CEFF034B01211960D2F81834DB03DA
:10EA9C00FBD408BD0C000040124B1B6810B573B1C1
:10EAAC004FF48070FFF7BCFF4FF080430122C3F896
:10EABC0008230D4B587910B95A711B6898470B4BAA
:10EACC001B6873B14FF48270FFF7AAFF4FF08043BD
:10EADC000222C3F80823044BBDE810401B68012038
:10EAEC00184710BD00010040C4250020040100405F
:10EAFC0000F1804000F5C040002382B00360036841
:10EB0C000193019B02B07047800000F1A040D0F847
:10EB1C00002722F44032C0F80027D0F8003743EA2F
:10EB2C000143C0F8003770472DE9F74F00244E4DD4
:10EB3C0001944FF48072012102F1804303F5C0432C
:10EB4C0090B21B68012B06D1D5F804330B4202D0CE
:10EB5C00FFF7CEFF0C430432B2F5907F4FEA410130
:10EB6C00EAD1424B1B68012B0CD14FF4BE70FFF75E
:10EB7C00BFFF4FF0A04344F00044D3F8202501928E
:10EB8C00C3F8202514F0FF0F1AD0394F00250126A9
:10EB9C00344210D0AB0003F1804303F5C043D3F8EB
:10EBAC001005D3F8101557F8253023B1C1F30141E6
:10EBBC00C0F3042098470135082D4FEA4606E7D1EB
:10EBCC00002C48DA2A4D4FF0A0482A4E4FF000098D
:10EBDC00012716F9013B5A1C31D0C3F3C20202A91A
:10EBEC000A44DCB212F8042C03F03F0A03F00703CA
:10EBFC0007FA03F31A4222D00AF5E073504658F88C
:10EC0C002330C3F3014BBBF1020F0CBF03210221D4
:10EC1C00FFF77AFF07FA0AF3C8F8203505EB0A0369
:10EC2C0093F9303055F823304BB1A109032904D0A6
:10EC3C00BBF1020F12D1012901D15046984709F1BD
:10EC4C000109B9F1040FC4D1D8F820350193C8F8E3
:10EC5C002035002BB9D103B0BDE8F08FBBF1030F09
:10EC6C00EDD10229E8E700BF006000407C61004064
:10EC7C00CC2500201C260020014B1B68184700BF28
:10EC8C00282600200E4B984237B50C4602D00020A7
:10EC9C0003B030BD00230DF107008DF80730FEF7EF
:10ECAC00D7F8084B1D7915B901221C601A719DF813
:10ECBC000700FEF7F1F8002DE9D01120E8E700BFBE
:10ECCC000020004028260020034B984201BF034B34
:10ECDC0000221A601A71704700200040282600207C
:10ECEC000023435082B043580193019B02B07047FC
:10ECFC000A4610B54FF48E71FFF7F2FF136A916854
:10ED0C00C95C136A01331362C0F81C1510BD8B6902
:10ED1C000A4610B54FF4847123B9FFF7E1FFD0F820
:10ED2C00183510BDFFF7DCFF536AD168D0F8180511
:10ED3C00C854536A01335362F3E700001FB5012333
:10ED4C008DF80030044BCDE90110D3E90012684670
:10ED5C00904705B05DF804FB3026002030B54C48D8
:10ED6C00D0F8043313F4007F85B005464DD0D0F8AD
:10ED7C002431002B49D04FF49271FFF7B1FF4FF4BF
:10ED8C000173C0F80833434B93F829200AB90122C8
:10ED9C0042603F4902228DF80020D1F88024C1F84E
:10EDAC00802403929A690292DA6801920022C3E9E4
:10EDBC0006226846D3E9001290473548D0F81C313A
:10EDCC005BB134494A690B6A9A420A464AD991F8AE
:10EDDC002830002B46D1FFF78BFF2D48D0F844315B
:10EDEC008BB14FF4A271FFF77BFF2A4B93F82920CC
:10EDFC000AB1012202609A692AB10022586AD968C4
:10EE0C009A61FFF79BFF05B030BDD5F804335B0763
:10EE1C00D3D5D5F80831002BCFD01E4C1C48214639
:10EE2C00FFF775FF636AA2699A422346C5D1E2696E
:10EE3C00E1684AB12369E3600023606AA261E3617F
:10EE4C006362FFF77BFFB8E794F829200AB9012227
:10EE5C006A600F4A4FF40170C2F808030022586A26
:10EE6C009A61EEE70A484FF48E71FFF739FF536948
:10EE7C00002BB2D051690291002391688DF80030BB
:10EE8C00019153616846D2E900139847A5E700BF8A
:10EE9C0000200040302600202DE9F843544B057922
:10EEAC0091462C2202FB0532064692F82A200C468B
:10EEBC009846002A40F098804E490068FFF7E2FE21
:10EECC000746002840F0928021683368481C0BD01C
:10EEDC004FF0A04001228A40C0F8082501F5E072ED
:10EEEC004FF0030C40F822C06068421C1FBF00F5B5
:10EEFC00E0724FF0A04C4FF0000E4CF822E0A269EB
:10EF0C00C3F8242594F814C0627DBCF1010F4CEABF
:10EF1C000202C3F86C25C3F81405C3F80C151DD1F7
:10EF2C00A1684A1C1FBF01F5E0724FF0A0404FF0E2
:10EF3C00000C40F822C0E268501C0BD04FF0A04CE3
:10EF4C0001209040CCF8080502F5E0704FF0030E5C
:10EF5C004CF820E0C3F80825C3F810152C236B439C
:10EF6C0008EB0302C2F80490226948F80320B9F1B7
:10EF7C00000F21D03068247F4FF48E71FFF7B0FE64
:10EF8C004FF4A2713068FFF7ABFE32681A4BC2F82F
:10EF9C000433110B42F307326301002ADBB21EDB90
:10EFAC001648841884F800330123520901F01F011C
:10EFBC0003FA01F140F8221033680422C3F800254B
:10EFCC002C2303FB05830022C3E9062283F82920A6
:10EFDC005A61012283F82A203846BDE8F883084A92
:10EFEC0001F00F015354E7E70827F5E71127F3E782
:10EFFC003026002069ED01008000020000E100E0F5
:10F00C0014ED00E0F8B503680479304D0022C3F824
:10F01C0000252C2202FB04525268A2B12C4AC3F8E0
:10F02C0008231A0B43F30733002B0CDB02F01F01F0
:10F03C005B0901228A402033264941F82320BFF383
:10F04C004F8FBFF36F8F0068D0F80C65D0F8141594
:10F05C00D0F80835D0F810254FF0FF37BE42C0F875
:10F06C00147518BF06F5E076C0F80C75C0F8087575
:10F07C00C0F810751EBF4FF0A0474FF0020C47F8B8
:10F08C0026C04E1C1FBF4FF0A04601F5E0710227B1
:10F09C0046F82170511C1FBF4FF0A04102F5E072E1
:10F0AC00022641F822605A1C1FBF03F5E0734FF093
:10F0BC00A042022142F82310FFF706FE2C2303FB8B
:10F0CC000454002384F82A306360F8BD30260020F5
:10F0DC008402020000E100E02DE9F047204F90F897
:10F0EC0004904FF02C0808FB097405466669002E45
:10F0FC0034D162610068A16026624FF48E7184F88D
:10F10C002860FFF7EDFD2868012383602146FFF797
:10F11C00EFFD6368A0468BB92868D4F814A0236A65
:10F12C009A4511D82A68D2F81C31002BFBD0012348
:10F13C00D3602C2303FB097300225A613046BDE8CF
:10F14C00F08794F828303BB9D0F81C31002BF8D05C
:10F15C004146FFF7CDFDE2E70F26EAE71126EDE782
:10F16C00302600201FB503788DF800308388ADF869
:10F17C00043083688DF80630C3688DF80730036956
:10F18C0002934369054A0393054B684653F82130B3
:10F19C0052F82110984705B05DF804FB5C2600205E
:10F1AC0060260020024B4FF4807043F00103184797
:10F1BC00403A02002DE9F047174690F80090324A89
:10F1CC0042F82970314A42F829304B7B80460C4674
:10F1DC0063B30868496882008B0002F1A04203F116
:10F1EC00A04340F20C65C2F800570126C3F8005743
:10F1FC004FF0A04506FA00F006FA01F1C5F8080533
:10F20C00C5F8081540F20D61C2F80017C3F80017D5
:10F21C00FFF7C8FF4FF0000AD5F81025636822FAF3
:10F22C0003F3DB070ED5BAF1000F1ED1002F184ADD
:10F23C004B4608BF3A46214608F10400BDE8F047AA
:10F24C0000F020B9236806FA03F3C5F80C35FFF774
:10F25C00A9FF236806FA03F3C5F808350AF1010A79
:10F26C00FFF7A0FFBAF1090FD6D1636801254FF063
:10F27C00A04605FA03F3C6F80C35FFF793FF636855
:10F28C009D40C6F80855D1E7602600205C2600207A
:10F29C0071F101000023435082B043580193019B4C
:10F2AC0002B070470A7B0346032A29D8DFE802F034
:10F2BC00212519028A68500304D5D3F84C25086916
:10F2CC00904207D18A6852031AD4D3F84C25496965
:10F2DC00914215D000200622C3F80005C3F8002582
:10F2EC007047D3F84C2508699042F3D1D3F83C25EC
:10F2FC00EDE7D3F84C250969EAE7D3F83C25FAE7A2
:10F30C0001207047F0B55A485A4CD0F8243187B0D8
:10F31C000546F3B14FF49271FFF7BCFFD0F80431FE
:10F32C00BBB9A368C0F808330223A360A368C0F874
:10F33C000433D0F860311BB1D0F800329F0503D4F0
:10F34C004B4B01221A625A61012384F82E3007B00C
:10F35C00F0BDD5F80431002B52D045484FF48271E2
:10F36C00FFF798FF236A5E060AD494F82E303BB957
:10F37C0040493F48FFF796FF80F0010084F82E00CB
:10F38C00236A5D0721D43C4E0FCE01AD0FC5336807
:10F39C0037482B604FF4B071FFF77CFF34484FF4C3
:10F3AC00AE71FFF777FF94F8303013B194F82E302C
:10F3BC005BB12F4B0022C3F80022A2602F4AC3F886
:10F3CC0008232F4B0822C3F88021294AD2F8C434D1
:10F3DC00C2F8C43498073DD501238DF8003094F859
:10F3EC0030300BB984F82F30236A5B0703D594F8BF
:10F3FC002E30002BABD0D4E9003168469847A6E7F5
:10F40C001B484FF4A471FFF745FF237B83B91A4FB8
:10F41C000FCF01AE0FC63B68336094F83030002B31
:10F42C00D3D1C5F80032A360144BC5F80833C8E734
:10F43C004FF40073C5F8003240F20223A36003F1CD
:10F44C00CE73C5F80833A368C5F804330123AB6049
:10F45C002B627CE7590701D50223BEE7DA0701D5F9
:10F46C000323BAE794F82E30002BB6D00423B4E76C
:10F47C0000300040642600207026002002029C010F
:10F48C0000E100E02DE9F84F0679304D4FF0340AD9
:10F49C000AFB06FA05EB0A079B4697F82D308046C7
:10F4AC000C469146002B4DD129490068FFF7EAFB29
:10F4BC00002849D12168637B87F8323001F5E0726E
:10F4CC004FF0A043B860C7F804B087F82F0087F856
:10F4DC00300040F20C6745F80A9043F822706268DD
:10F4EC0002F5E07C43F82C70D8F80030C3F808150E
:10F4FC00C3F80C25A268C3F82425B9F1000F14D069
:10F50C00227B43F3073152010029C3F30733D2B2F4
:10F51C0013DB104C671887F800230122490903F00C
:10F52C001F0302FA03F344F82130342303FB06557E
:10F53C00012385F82D30BDE8F88F074903F00F0340
:10F54C00CA54F2E70820F6E71120F4E764260020FD
:10F55C0011F3010000E100E014ED00E00268037912
:10F56C000621C2F80015044A342101FB03230222B0
:10F57C0083F82D20704700BF642600200379034ACE
:10F58C00342101FB032393F82F00704764260020DD
:10F59C002DE9F843B14F90F804900468342606FB2B
:10F5AC000976002386F82E30CB6803F06043B3F164
:10F5BC00005F0D46904603D010263046BDE8F88318
:10F5CC00A74BC4F8083396F82F3023B1B368C4F8AE
:10F5DC0004331126F1E712F0140F0CBF01230023A2
:10F5EC0086F82F308E46BEE80F0006F10C0CACE806
:10F5FC000F00DEF80030CCF80030C8F3001386F8AA
:10F60C003030C6F820806B78C4F8883520464FF42B
:10F61C008271FFF73FFE4FF49271FFF73BFE4FF400
:10F62C00B071FFF737FE4FF4A471FFF733FE18F0FB
:10F63C00010318BF0123C4F8503518F0020318BF9A
:10F64C000123C4F840352B78032B00F2B480DFE89B
:10F65C0003F0839F68022B6903F06043B3F1005FF2
:10F66C00AAD14FF48073C4F80032EA686B68C4F80E
:10F67C0044254FF4A871C4F84835FFF70BFE01235D
:10F68C002362A360D4F85031002BFBD04FF4A87147
:10F69C002046FFF7FFFDAB682A69C4F84425C4F87F
:10F6AC004835342303FB09734FF480229A600823F6
:10F6BC00002618F0080F04D12A78032A1CBF012257
:10F6CC00E250342303FB09F3FA18FB58002B75D1D5
:10F6DC000125D4F84821D4F80431002B40F088805F
:10F6EC00003A18BF0122D4F82431002B00F0878097
:10F6FC004FF492712046FFF7CDFDD4F86011D4F889
:10F70C00003209B1980504D4256265610029E0D066
:10F71C000022DB0573D54FF4A4712046FFF7BAFD28
:10F72C00D7E76B68EA68C4F84425C4F848352B69F8
:10F73C0003F06042B2F1005F7FF43EAFAA68C4F8F8
:10F74C0034354FF48453C4F83825C4F800323423CC
:10F75C0003FB0973022212E06B68EA68C4F84425C3
:10F76C0018F0200FC4F848354FF034030BD04FF489
:10F77C008072C4F8002203FB09734FF480229A6054
:10F78C000123236293E74FF40072C4F80022DFE7F1
:10F79C006B68EA68C4F83425C4F838354FF48053E4
:10F7AC00C4F80032342303FB097302229A6001234C
:10F7BC00236200237CE7082307267AE718F0040F5E
:10F7CC001CBF0023936018F0400F06D1342303FBB9
:10F7DC0009739A6842F002029A60342303FB09779A
:10F7EC00BB6843F40073BB60BB68C4F80433E4E645
:10F7FC004FF482712046FFF74DFD012273E7002A7A
:10F80C003FF467AF3421D4F8C434C4F8C43401FBDA
:10F81C000972002082F82F0093B113F0010F14BF6E
:10F82C004FF40246032648F2012213F0020F18BFD0
:10F83C00164613F0040F48F2022318BF1E46BCE60E
:10F84C0018F0400F7FF4B9AE09FB01712046FFF7A9
:10F85C0029FD002808BF0326AFE600BF6426002060
:10F86C0002029C0110B586B00024CDE902349DF84B
:10F87C0020308DF80510A342CDE9042401A914BF52
:10F88C00202222468DF80440FFF782FE06B010BD00
:10F89C0010B586B0012402930023CDE903328DF814
:10F8AC0005101A4601A98DF804400593FFF770FE68
:10F8BC0006B010BD0023435082B043580193019B06
:10F8CC0002B070471FB501238DF80030044BCDE911
:10F8DC000110D3E900126846904705B05DF804FBAF
:10F8EC00982600207FB5434AD2F82461002E60D0C0
:10F8FC0010464FF49271FFF7DDFF02238DF80030B4
:10F90C00D2F88034C2F880340393D2F83C35029399
:10F91C00394BDA6801920022C3E906226846D3E922
:10F92C00001290473348D0F8443173B14FF4A271B0
:10F93C00FFF7C0FF304B9A693AB10022C3E90622A7
:10F94C00D968D0F83C05FFF7BDFF2A48D0F8203124
:10F95C00ABB14FF49071FFF7ADFF0123C360264BA1
:10F96C005A6962B1D0F84C150291002299688DF851
:10F97C00002001915A616846D3E9001290471D4856
:10F98C00D0F858319BB14FF4AC71FFF793FF1A4B81
:10F99C005A6962B1D0F84C150291002299688DF821
:10F9AC00002001915A616846D3E90012904704B0D7
:10F9BC0070BDD2F81031002BB4D04FF488711046C2
:10F9CC00FFF778FF0C4BD2F83C0599698842A9D116
:10F9DC00DC69D96864B1D2F8005225F02005C2F870
:10F9EC0000521A699C61DA60DE61FFF76BFF99E7E0
:10F9FC009C61FAE700200040982600202DE9F8438E
:10FA0C005B4B06799146242202FB0632044692F89F
:10FA1C0020200D469846002A40F0A58055490068E4
:10FA2C00FFF730F90746002840F09F8029682368CB
:10FA3C00481C0BD04FF0A04001228A40C0F808258A
:10FA4C0001F5E0724FF0030C40F822C06868421CCC
:10FA5C001FBF00F5E0724FF0A04C4FF0000E4CF8B9
:10FA6C0022E0AA69C3F8242595F814C06A7DBCF17C
:10FA7C00010F4CEA0202C3F86C25C3F80C15C3F84D
:10FA8C0014051DD1A9684A1C1FBF01F5E0724FF087
:10FA9C00A0404FF0000C40F822C0EA68501C0BD07C
:10FAAC004FF0A04C01209040CCF8080502F5E07016
:10FABC004FF0030E4CF820E0C3F80825C3F81015DE
:10FACC002423734308EB0302C2F804902A6948F814
:10FADC000320B9F1000F30D020682A7F4FF48871D1
:10FAEC00FFF7E8FE20684FF49071FFF7E3FE206803
:10FAFC004FF49271FFF7DEFE20684FF4A271FFF70E
:10FB0C00D9FE4FF4AC712068FFF7D4FE23681A4974
:10FB1C00C3F80413190B43F307335201002BD2B271
:10FB2C001CDB1648C51885F8002301225B0901F07F
:10FB3C001F0102FA01F140F8231023680822C3F8D0
:10FB4C000025242303FB06830022C3E906225A6105
:10FB5C00012283F820203846BDE8F883084B01F0D9
:10FB6C000F015A54E9E70827F5E71127F3E700BF1F
:10FB7C0098260020F1F801001003420000E100E09B
:10FB8C0014ED00E0F8B5444D0479242303FB045331
:10FB9C0002465B680068ABB1404BC0F8083340F3D9
:10FBAC000733002B4FEA10310CDB01F01F065B0909
:10FBBC000121B14020333A4E46F82310BFF34F8F4A
:10FBCC00BFF36F8FD0F8003223F02003C0F800325F
:10FBDC00242303FB04539B692BB14FF4A271FFF751
:10FBEC0069FE012343604FF4AC71FFF763FE012300
:10FBFC00C360242303FB0453D0F858110029FBD015
:10FC0C00996919B1D0F844110029F5D00023C0F836
:10FC1C0000351368D3F80C75D3F81465D3F80825A0
:10FC2C00D3F810154FF0FF3C6745C3F80CC518BF4F
:10FC3C0007F5E077C3F814C5C3F808C5C3F810C5B9
:10FC4C001EBF4FF0A0434FF0020C43F827C0771CA7
:10FC5C001FBF4FF0A04306F5E076022743F826704D
:10FC6C004E1C1FBF01F5E0714FF0A043022643F874
:10FC7C002160531C1FBF4FF0A04302F5E07202211C
:10FC8C0043F82210FFF720F8242303FB045400232D
:10FC9C0084F820306360F8BD9826002010034200E1
:10FCAC0000E100E001F06043B3F1005F2DE9F041A9
:10FCBC00064638D11E4B0779242505FB0735984697
:10FCCC006C69002C31D16A610068A9604FF49071A5
:10FCDC00FFF7F0FD4FF4AC713068FFF7EBFD3368C4
:10FCEC006A69A968C3F84415C3F8482501229A60CB
:10FCFC006A68AAB9D3F82021D3F858411AB9002C54
:10FD0C00F8D00F2407E0002CFBD10122DA60D3F8E5
:10FD1C005821002AFBD0242303FB078700237B6197
:10FD2C002046BDE8F0811024FAE71124F8E700BF63
:10FD3C0098260020032811D8012A0AD101290FD1B5
:10FD4C0000F10E02D2B20D4B00EB40001A54002011
:10FD5C0070470129F7D0022904D049B10720704718
:10FD6C000022F8E7054B00EB400018444270EEE728
:10FD7C00024B00EB400018448270E8E7BC260020E0
:10FD8C0008B5012202210020FFF7D4FF08B1072893
:10FD9C0010D1072202210120FFF7CCFF08B1072860
:10FDAC0008D100210A220846FFF7C4FF10B107282A
:10FDBC0008BF002008BD00000388102B10B502D02E
:10FDCC00112B1ED010BD1A4C2168B1B90122084666
:10FDDC00FFF7B0FF08B1072824D107220221012028
:10FDEC00FFF7A8FF08B107281CD10422022100202C
:10FDFC00FFF7A0FF08B1072814D123680133236053
:10FE0C00E0E70B4A1368013B1360002BDAD1FFF7D4
:10FE1C00B7FF0028D6D0074B1B68002BD2D0BDE80B
:10FE2C0010401847034B1B68002BE6D09847E4E7BB
:10FE3C00CC260020C8260020034B1A8882420CBF17
:10FE4C0018460020704700BFEC260020024B9B692F
:10FE5C0003B11847704700BFD026002013B50B46DE
:10FE6C00497A02460E4869B9D0E901101C7A002C77
:10FE7C0018BF01465868FCF7CDFF08B1FFF7E6FF45
:10FE8C0002B010BD002119724369002BF8D001217A
:10FE9C008DF80410ADF8062001A89847F0E700BFD4
:10FEAC00D02600204B8802889A4213D842889A4266
:10FEBC0010D380888A8840F2F313984294BF031AB7
:10FECC00C31A934206D800F2F310904234BF0020BC
:10FEDC0001207047002070470388122B70B5014633
:10FEEC0059D004D8102B1ED0112B44D070BD502BE0
:10FEFC00FCD12F4BC288DB899A42F7D1038A022BA3
:10FF0C00F4D186883046FFF797FF05460028EDD0E0
:10FF1C0001F1120000F08CF938BB6868FCF792FF15
:10FF2C000028E3D009E0C37B012BDFD14FF6FF7033
:10FF3C00FFF782FF054620B90420BDE87040FFF7AB
:10FF4C0085BF1C4A8E880680002303721368C0F894
:10FF5C000A305368C0F80E3010310A30FFF7A2FF98
:10FF6C00134B6872DB89002BC0D129463046BDE8A3
:10FF7C007040FFF773BF8088FFF75EFF04460028D0
:10FF8C00B4D04068FCF75EFF08B1FFF75FFF4FF697
:10FF9C00FF732380AAE786883046FFF74DFF05469E
:10FFAC000028A3D008310A30FFF77CFF6872DCE729
:10FFBC00D026002000270020F7B5174601900E46EA
:10FFCC0091B1019C6CB100252C46294601A8FDF786
:10FFDC0093FD18B13946A8B2B04701340135142D40
:10FFEC00F3D1204603B0F0BD0C46FAE70AB1FDF799
:04FFFC0062BDFDF7EE
:020000022000DC
:1000000077BD73B50191019C06466CB100252C4665
:10001000294601A8FDF776FD18B106EB440301342B
:100020009D800135142DF3D13046346002B070BD8F
:100030002DE9F04303888488103B8DB00A2B1ED82D
:10004000DFE803F006361D1D1D1D1D1D1D573B005D
:100050002C4DAB68DB43009369686846FDF7B7FD3C
:10006000009901A8FFF7CDFF0DF108080027019BBB
:100070009F4207D3132C12D90420FCF751FE0DB078
:10008000BDE8F08338F8029B00260136494605EBAF
:100090008600FDF72DFD1E2EF7D10137E7E721463B
:1000A0001948FDF70EFD19482146FDF70AFDE6E760
:1000B00015482146FDF71CFDE1E7027A14483F2A66
:1000C0004FEA1215214694BF00220122FFF794FF48
:1000D000022D94BF002201220E482146FFF78CFF1B
:1000E000012D0D4894BF002201222146FFF784FF15
:1000F000C5E7037A002BC2D1427A0548C2F3C00299
:100100002146F3E708270020102700200C270020B5
:10011000202700201C270020182700201328014634
:1001200002D80248FDF7EEBC002070470C270020E3
:10013000FFF7F4BF10B50446FFF7F0FF38B10448ED
:100140002146FDF7DFFC002814BF0220012010BD6E
:100150001027002010B50446FFF7E0FF28B1214624
:100160000248BDE81040FDF7CDBC10BD18270020A7
:1001700010B50446FFF7D2FF28B121460248BDE87A
:100180001040FDF7BFBC10BD1C27002010B5044671
:10019000FFF7C4FF28B121460248BDE81040FDF733
:1001A000B1BC10BD2027002070B50A4E0546304670
:1001B0000C46FDF7A7FC58B12846FFF7AFFF38B152
:1001C0000734294606EB8400BDE87040FDF79ABC71
:1001D000002070BD08270020F8B50B4F05463846B3
:1001E0000C461646FDF78EFC60B12846FFF796FFD9
:1001F00040B107343246294607EB8400BDE8F84099
:10020000FFF7FABEF8BD00BF08270020F8B50A4D79
:1002100004460E46014628461746FDF773FC48B1D2
:10022000063405EB84043A4660683146BDE8F84080
:10023000FFF7C8BEF8BD00BF08270020007800F017
:1002400001007047A0DF7047A1DF7047ADDF704746
:10025000B3DF7047B4DF704710B50446408800F044
:1002600023FDA0802046BDE8104001F0E3BA30B580
:1002700087B005460C461422002101A802F09DFE1D
:10028000072301A88DF80430ADF806500394FFF75A
:10029000E3FF07B030BD000070B586B005461422FC
:1002A000002101A802F089FE4FF6FF739D42ADF8D0
:1002B00006503FD0284600F0E7FB1128044633D013
:1002C00016D8D8B10B2820D02046FEF7BDF91A4E1B
:1002D0001A4902461A48361AF608360446F0010052
:1002E0002B46FCF7B6FB21462846FFF7C0FF03E08C
:1002F00043F202039842E7D1002216E00E238DF864
:10030000043001A8FFF7A8FFF6E70F238DF80430AB
:1003100009480B4B0B49C01AC00800042A4640F09C
:100320000200FCF78DFBECE70122074B2846197809
:10033000FFF752FF06B070BD6C310200D13A0200E7
:10034000EC300200513A02008B270020FFF7A4BFD7
:10035000024B034918780022FFF758BF8D27002071
:10036000650302002DE9F047464D88B02978044620
:10037000FFF71AFFA846064600287CD1204600F069
:10038000E7FB0828054632D016D808B306285BD00C
:100390002846FEF759F93C4F3C4902463C483F1A73
:1003A000FF083F0447F001002346FCF752FB2946B3
:1003B0002046FFF75CFF09E043F20203984205D0B4
:1003C00043F20143984259D01128E1D1012546E07A
:1003D0003146142203A802F0F0FD102303A88DF883
:1003E0000C30ADF80E400126FFF736FFEEE70DF1B9
:1003F0000600FFF72DFF354601274FF0020A0DF1E9
:100400000809BDF80630BB421ED9002249463846CD
:10041000CDE903A9FFF71EFFB0B9BDF808303DB91B
:1004200042F605255B1B5D425D410137BFB2E8E73F
:1004300042F602129342F8D101AB03AA3946204694
:100440000493FFF703FF30B1204600F02DFC00F0CD
:10045000ABFB002503E0BDF80430002BF4D00D4BBE
:100460002A4619782046FFF7B7FE98F80010324662
:100470002046FFF7B1FE08B0BDE8F0872046FFF741
:100480000BFFA3E78E2700206C310200223B020005
:10049000EC3002008D27002013B5044600F004FC68
:1004A00000236A46092100F0E5FD052805D1044B2B
:1004B000012219782046FFF78FFE02B010BD00BF61
:1004C0008927002008B5084B084918780022FFF753
:1004D0009DFE024630B9064B06491878BDE8084033
:1004E000FFF794BE08BD00BF8C2700204105020025
:1004F00089270020F904020037B5044604220021B0
:10050000684602F05AFD42F6A623ADF800300A4BC9
:1005100018680190012501AA694620468DF802500D
:10052000FFF790FE28B9054B2A4619782046FFF7B9
:1005300053FE03B030BD00BFF03C0200882700200E
:1005400070B5012186B006462A48FDF711FB044626
:10055000BFF35F8F002849D1304600F039FA862872
:1005600005461ED017D8A8B3112841D02846FEF75B
:100570006BF8214C214902462148241AE40824043E
:1005800044F001003346FCF764FA29463046FFF791
:100590006EFE002403E043F202039842E6D12246B5
:1005A0001AE02146142201A802F007FD06238DF867
:1005B00004301148124B1349ADF80660C01AC00848
:1005C0000004324640F00200FCF73AFA01A8FFF7B7
:1005D00043FEE4E7012402460B4B30461978FFF74F
:1005E000FBFD1CB9BFF35F8F024B1C6006B070BDF2
:1005F0000122F1E7842700206C310200973B0200C2
:10060000EC300200623B02008C27002038B50378F2
:100610000446A3B94088FFF73FFE6588284600F0EE
:1006200085FA28B1064B012219782846FFF7D4FD38
:100630006088FFF731FFBDE83840FFF743BF38BDA2
:100640008D27002037B50378082B044630D1427A35
:1006500072BB057A072D1BD0082D2DD0012D27D177
:1006600080886A46294600F043FF08BB019B1B783F
:10067000F3B1A08800F046FB4FF6FF73984217D005
:10068000114B2A461978FFF7A7FDFFF761FE0FE02F
:10069000808800F037FB4FF6FF739842044607D07E
:1006A0000A4B01221978FFF797FD2046FFF7F4FE69
:1006B000FFF708FF03B030BD054B19680129F7D1DA
:1006C000BFF35F8F1A60F3E78D2700208C2700208F
:1006D0008427002073B50123ADF8003009238DF87D
:1006E0000230144B002422460E461978CDF8034000
:1006F00005468DF80740FFF76FFD0F4B0F49284661
:10070000A64218BF1946019100F0CEFA224669466A
:1007100000F01CFD60B1FDF797FF094B0949024647
:1007200009481B1ADB081B0443F00200FCF788F998
:1007300002B070BD89270020F83C0200F43C0200A2
:100740006C310200D43B0200EC30020070B503882B
:100750008488502B86B0054638D00ED8352B48D02B
:10076000362B00F08C80584B584918780022FFF740
:100770004DFDFFF7EDFD06B070BD522B22D0542B7E
:10078000F1D11422002101A802F017FC1123204608
:100790008DF80430ADF8064000F086FAADF8080098
:1007A00000F002FA4A4B204619780022FFF714FDA8
:1007B000484B204619780022FFF70EFD01A8FFF7ED
:1007C0004BFDD0E72046FFF767FDCCE7037B012B0D
:1007D000C9D1827A012AC6D1018942F6021399420F
:1007E000C1D13D4B20461978FFF7F6FCFFF76AFEB2
:1007F000B9E73A4E20463178FFF7D6FC0028B2D050
:10080000002231782046FFF7E7FCEA88B2F5857FC1
:100810000AD072B13248334BC01AC00800043249C2
:1008200040F00200FCF70CF900212046FFF752FFD0
:1008300099E76A89012A09D029482A4B2B49C01A0D
:10084000C008000440F00200FCF7FAF8AE89012E5F
:1008500007D02348234BC01AC0080004324624495D
:10086000DEE7E98900222046FFF7EEFC0028DBD115
:10087000204B324619782046FFF7AEFC73E71D4E39
:1008800020463178FFF790FC00283FF46CAF3178B8
:1008900000222046FFF7A0FCEE8836B11048114B2D
:1008A000C01AC00800043246B9E7EA89012A05D017
:1008B0000B480C4BC01AC0080004D0E7297C003953
:1008C00018BF0121B1E700BF8B2700204D030200B4
:1008D0008E2700208D2700208C27002088270020CD
:1008E0006C310200EC300200313C02006B3C020033
:1008F000A53C02008A270020AFDF7047B1DF7047B8
:10090000B2DF7047B3DF704710B50446808800F04F
:10091000F9F960802046BDE8104000F08DBF00006E
:10092000F0B5204B204E93E8030089B001AD85E877
:1009300003004FF6FF773088B84217D000222946CF
:1009400000F004FC044638B31422002103A802F08E
:1009500034FB3388ADF81030112C07D0862C07D12A
:1009600006238DF80C3003A8FFF7CEFF09B0F0BDC9
:100970002046FDF769FE0D4D33880D4902460D48AE
:100980002D1AED082D0445F00100FCF762F807234D
:100990008DF80C300594E6E7308800F044FC308098
:1009A000C9E700BFA83E0200902700207431020072
:1009B000FC3C0200EC300200044B1A884FF6FF7337
:1009C0009A4201D0FFF7ACBF704700BF90270020CC
:1009D0002DE9F347804600F067F94FF6FF73984220
:1009E000074648D0254E264BDFF898A0F61AF608A1
:1009F000360446F001064FF001094A466B460821CD
:100A0000384600F079FD09F101091FFA89F9054618
:100A100060BB01990A46032342F8043B0631404675
:100A2000FFF76EFF044648B93A460821384600F001
:100A300027FE0446204602B0BDE8F0870C2813D0FC
:100A4000052800D12C460821384600F0C7FD40B1EA
:100A5000FDF7FAFD3A46034651463046FBF7F9FFEB
:100A60000324002DC9D1E5E70125ECE7072814BFD1
:100A700004460C24DEE743F20204DBE77431020093
:100A8000EC300200513D02002DE9F341054600F033
:100A90000BF94FF6FF73984222D100240326274614
:100AA0004FF001083346224639462846FFF726FF15
:100AB00004282BD0082830D00B2828D116F00203A8
:100AC00019D1E7B9FCB91648164B17491B1ADB08B0
:100AD0001B042A4643F00100FBF7B2FF0B2019E08C
:100AE0006A46082100F004FD0028D6D1019B9C88AD
:100AF0001E689F1DD4E701264FF00008D2E70326A9
:100B00001C461F46F8E703263C46F5E71120B8F1DE
:100B1000000FE3D002B0BDE8F0810020F7E700BF8E
:100B2000EC30020074310200D03D02001FB50DF11F
:100B30000703039300F0B8F802AA012100F0D8FCE3
:100B400020B9039B187805B05DF804FB0020FAE794
:100B500070B505461048FFF7D5FE70B90E4C43F24C
:100B6000030621884FF6FF722846FFF7C5FEB04204
:100B700011D1238801332380F3E7FDF765FD074B8F
:100B80000749024607481B1ADB081B0443F0010013
:100B9000FBF756FF032070BD92270020743102003E
:100BA000483E0200EC30020013B5074A044692E8C2
:100BB00003006B4683E8030000221946204600F03C
:100BC000C5FA02B010BD00BFB03E020046DF70475C
:100BD000421E00F10F0312F8010F10B99A42FAD128
:100BE00070470120704708B570B171B103780A7879
:100BF000534013F0FE0F08D106220131013002F0FC
:100C000080F9B0FA80F0400908BD0020FCE72DE92A
:100C1000F04700F101084F1C06460D4600F111098E
:100C200001F1110A10223946404602F06AF90446E1
:100C3000D0B94046FFF7CCFF18B13846FFF7C8FFE0
:100C4000044651464846FFF7CEFF737C03F0FC0391
:100C5000042B05D06B7C03F0FC03042B18BF044667
:100C600004F00100BDE8F0870024EAE730B585B064
:100C700004460D4600F034FA02AA0DF106010720E1
:100C800000F036FA10B94FF6FF700BE0BDF80630F1
:100C9000AB42F1D003992046FFF7B9FF0028EBD013
:100CA000BDF8060005B030BD132810B5044602D9C2
:100CB0004FF6FF7010BDFFF731FA0028F8D00A2078
:100CC000014B4443185BF5E794270020132838B5FF
:100CD00004460D4602D943F2020038BDFFF71EFA62
:100CE0000028F8D006480A2303FB040050F8023F0E
:100CF0002B608388AB808379AB710020EDE700BF68
:100D0000942700204FF6FF7398422DE9F0410546E5
:100D10000CD00C4F00244FF00A0808FB04F3A6B2D5
:100D2000DB5BAB4205D00134142CF6D14FF6FF76D5
:100D300004E03046FFF7F2F90028F4D03046BDE871
:100D4000F08100BF94270020038843B9821C00F182
:100D50000A0312F8010B10B99A42FAD17047012028
:100D6000704710B50446FFF7EFFF58B122880B8893
:100D70009A4208D108220231A01C02F0C2F8B0FA4F
:100D800080F0400910BD0020FCE71FB5044600F0CC
:100D9000A7F902AA0DF10601072000F0A9F910B980
:100DA0004FF6FF7007E0039920464631FFF7D9FF61
:100DB00018B1BDF8060004B010BD039920462A31D1
:100DC000FFF7CFFF0028E4D0F3E7000013289FBF10
:100DD0000A235843014B1952704700BF9427002043
:100DE00038B50546FFF78EFF0446284600F000FCA4
:100DF00038B9132C05D80A235C43024B4FF6FF7217
:100E00001A5338BD9427002070B58CB014466A463A
:100E10000D4600F11003164613F8011D02F8011BE0
:100E20009842F9D10D22002104A802F0C6F82B78CF
:100E30008DF81F306B788DF81E303046AB788DF80A
:100E40001D30FFF7C3FE9DF82F3023709DF82E3024
:100E500063709DF82D30A3700CB070BD30B5037871
:100E600003F0FE03042B85B004460D4618D1411C47
:100E7000032201A802F078F80322211D03A802F042
:100E800073F802AA03A92846FFF7BEFF032202A9AE
:100E900001A802F036F8B0FA80F0400905B030BD84
:100EA0000020FBE730B50388102B91B04ED1041D14
:100EB0000FCC06AD0FC50FCC0FC59DF81C3094E8C4
:100EC000030003F0FE03062B85E8030009D000F0C1
:100ED00007F99DF81C30032B4FEA530204D9022A6C
:100EE0003DD04FF6FF7310E001AA0DF1020107207B
:100EF00000F0FEF80028F4D0029907A81131FFF79E
:100F000072FE0028F0D0BDF80230BDF81840184835
:100F10000A226243811883529DF8222007980A72A0
:100F20004FF6FF72C1F802009342BDF82000C8805E
:100F30000CD0ADF8083001A80023ADF806408DF8BC
:100F4000043000F07BFC01A8FFF760FB11B030BD5E
:100F5000029907A80131FFF781FF0028D3D101AA28
:100F60000DF10201072000F0C3F80028F0D1B8E726
:100F700094270020012804D0043805288CBF0020C5
:100F8000012070474FF6FF73438000F027BA00003E
:100F90002DE9F041274F8AB00021082268463970B8
:100FA00002F00BF84FF6FF7000F014FC4FF6FF78DC
:100FB000044648F20966444513D0A4F58045ADB215
:100FC0006A4602A92846FCF7F1FCB0420CD028463C
:100FD000FCF7AAFC48F20763984206460CD10123AD
:100FE0003B700AB0BDE8F081204600F097FB204638
:100FF00000F0F0FB0446DEE7002EF2D00E480F4D65
:101000000F492D1AED082D042346324645F0010004
:10101000FBF71FFD142200210DEB020001F0CDFFB4
:10102000072305A88DF81430ADF818400796FFF790
:10103000A9FFD6E764280020EC30020094310200BA
:10104000DD3E020073B504460D4616460021082217
:10105000684601F0B2FFA5F58041A4F580406B46DB
:10106000324689B280B2FCF787FC002818BF052001
:1010700002B070BDF0B5FF2887B004460E46154695
:101080001F462BD80846FFF775FF38B303AA204642
:10109000FFF7D8FF18B10524204607B0F0BD01A91D
:1010A00003A8FCF7EBFB04460028F4D1019BAE70CB
:1010B0005E8802992E8027B9696003A8FCF704FCBA
:1010C000EAE73F686868B600B74228BF37463A4645
:1010D00001F04AFFBE42F0D90C24DDE70724DBE72C
:1010E00002480822002101F068BF00BF5C280020F0
:1010F000F0B587B006460F461546FFF73BFF04469E
:10110000F8B1A6F58040104A03A980B2FCF741FC73
:1011100018B10024204607B0F0BD01A903A8FCF7D0
:10112000ADFB0028F5D1019BAE705A889B882A80C0
:1011300003F58043029A6A6003A83B80FCF7C4FB76
:10114000E8E70124E6E700BF5C28002070B5FF282F
:1011500086B006460B4615464AD889780846FFF7FA
:1011600009FF002844D0A6F58042ADF80020A1F583
:101170008042ADF802205A6801921B88029303AAAC
:101180003046FFF75FFF0528694603A812D1FCF738
:10119000BFFB0446A8B1A0F50643023B0B2B19D8B0
:1011A0000B2B17D8DFE803F01416161609261616AF
:1011B00016161626FCF7B0FBEBE78624204606B091
:1011C00070BD002DFAD0294603A8FCF7FCFBF5E71B
:1011D0001024F3E70848094D09492D1AED082D049C
:1011E0002246334645F00100FBF733FC0324E5E7D4
:1011F0000724E3E71124E1E7EC3002009431020018
:10120000293F02004FF6FF7000F070BAFF2808B5C2
:1012100005D800F071FAFFF7BBFE002008BD0720DB
:10122000FCE700F08FBA00F0BBBA00F0D3BA0000C0
:101230000A68084B70B50C25032A01D9002006E086
:1012400005FB02F4E65A864202D10A60181970BD05
:101250000132F1E77828002037B500230D46044617
:10126000019301A9FFF7E4FF38B18378AB4206D1BF
:10127000837A9B0703D143680BB903B030BD019B50
:101280000133019301A92046ECE710B5044600F0B4
:101290006DFB204601F0BCF92046FFF78DFB204690
:1012A000BDE81040FFF7CEB970B50E4E04460025DC
:1012B000237AAB420DD84FF6FF732380A37000232F
:1012C00063604FF47F432381A37A23F00303A37267
:1012D00070BD617A2944C9B2304600F0FAFB01358D
:1012E000E6E700BF6828002037B50023CDE90033CA
:1012F000417A83788DF802300446324800F0D0FB02
:1013000060B93148314B627A3149C01AC0080004D3
:1013100040F00100FBF794FB032046E0237AA2781B
:101320008DF8022003EB83039B00ADF80030531EC1
:101330000190072B08D8DFE803F0220707070722F0
:1013400004241423ADF800302246694632F8040B19
:10135000FFF7FCFE11282AD017D810B3072824D095
:10136000FDF772F9184D23881A49024617482D1ABD
:10137000ED082D0445F00100FBF76BFBCCE70123E2
:10138000E0E7838809339B08DCE78628E8D1A37A65
:1013900023F0030343F00103A3720F4B01221A70E1
:1013A00003E0A37A23F00303A37203B030BDA37A52
:1013B00023F0030343F00203A372074B01221A70C8
:1013C0000020F2E7682800208C310200EC30020097
:1013D000903F0200D03F0200652800202DE9F04731
:1013E0003E4FC16886B005463A4600233E465068E7
:1013F00081421BD10C2000FB03602B78DFF8EC80CE
:10140000092B1AD0132B4AD0082B4AD16C7A002C06
:1014100047D1002847D0FFF747FF2846FFF735FFA1
:1014200098F800308BB906B0BDE8F0870133042B83
:1014300002F10C02DBD10020DFE76C7A8CBB90B3A9
:10144000837A446043F002038372002588F80050D9
:101450004FF00C094FF0010A09FB05639B7A9907CD
:10146000C3F3400201D4DB0732D588F800A002B9EB
:1014700074B33846FFF738FF50B34FF6FF72ADF83C
:1014800006200C2255438628725BADF808200CD14B
:1014900006238DF8043001A8FFF7F7FEC3E7012407
:1014A000BBE70024B9E70446B7E707228DF804201C
:1014B0000390FDF7C9F80A4C735B0A4902460A48D3
:1014C000241AE408240444F00100FBF7C2FAE2E71E
:1014D0000135042D07F10C07BED1A4E778280020C0
:1014E0008C310200FF3F0200EC3002006528002032
:1014F0000023FFF7BFBD00002DE9F04180460E46F6
:1015000014461F46002B5CD0CB1F012B5BD8531E0B
:10151000032B58D8FFF7A0FE054610BBFF214FF65E
:10152000FF70FFF799FE0546C8B1A0F800808670ED
:101530006B7AFF2B1AD12548214600F0E2FAFF28EA
:10154000687229D14FF6FF732B8000236B604FF434
:101550007F432B81AB7AA87023F00303AB72112079
:1015600018E0037AA342E3D00F2013E04FF0000805
:10157000697A16482C7200F093FA80B9144B15481A
:101580006A7A1549C01AC008000440F00100FBF750
:1015900057FA0320BDE8F0814FF00108E8E704EBBB
:1015A00084042401A4B2A408BE7078603C80B8F121
:1015B000000F04D0082E02D1A400063C8480002035
:1015C000E8E70E20E6E70720E4E700BF68280020F0
:1015D000EC3002008C3102005F40020008B5FFF7DA
:1015E0003BFE18B1FFF760FE002008BD0520FCE7B8
:1015F0007FB500230546039303A9FFF719FE0446B0
:10160000A8B92846FFF702FE034640B3072826D0B4
:10161000FDF71AF8164C174903461748241AE40830
:1016200024042A4644F00100FBF713FA16E0A178DF
:101630002846FFF7D3FFA8B1052813D0FDF704F81B
:101640000B4EA378009302460B480C49361AF60855
:1016500036042B4646F00100FBF705FA0323184633
:1016600004B070BD039B0133039303A92846C4E76C
:101670008C31020029410200EC300200D34002000C
:10168000CB1F012B70B506460C46154601D9072025
:1016900070BD1046FFF7C5FD0028F8D02146304642
:1016A000FFF7DAFD28B184700580BDE87040FFF7D0
:1016B0001BBE0520ECE710B54FF6FF7304469C42B5
:1016C00008460AD14FF48071FCF725FA84B2B4F5CC
:1016D000807F09D14FF6FF7406E0FF2CFAD821462F
:1016E000FCF7F8F90028F5D1204610BD0149FFF7B5
:1016F000E2BF00BFA82800204FF6FF73984210B544
:10170000044606D00449FFF7D6FF231A5842584131
:1017100010BD0020FCE700BFC8280020FF2810B53E
:10172000044609D801460548FCF7E2F92146044879
:10173000BDE81040FCF7DCB910BD00BFA8280020B0
:10174000C8280020FF28014602D80248FCF7DAB971
:1017500000207047A8280020FF28014602D8024830
:10176000FCF7D0B900207047C82800204FF6FF735F
:10177000984270B518BF441C0E4614BFA4B2002492
:10178000A5B2FF2D02D94FF6FF7506E0214630467F
:10179000FCF7B8F901340028F2D0284670BD0000EB
:1017A00070B50B490A4EFFF7E1FF4FF6FF7504468F
:1017B000AC4201D1204670BD2046FFF7CDFF002886
:1017C000F8D020463146FFF7D1FF0446F0E700BFCE
:1017D000A82800200149FFF7C9BF00BFC828002082
:1017E000F8B5074E074F054600243B78A34200DCBE
:1017F000F8BD56F8043B284698470134F5E700BF8A
:10180000F0280020FF280020074B1B7810B5044665
:101810004BB1FFF747FB204600F01AFF2046BDE81A
:101820001040FEF793BF10BDFE28002008B1FFF75F
:10183000D7BF7047FFF7D4BFFFF7D2BFFFF7D0BFC6
:101840002DE9F04F87B081460093344B1B788846D2
:101850001646002B60D04FF6FF70FFF7E4FC002522
:101860000423CDE9025302AB059304AA03AB06217E
:1018700004460495FFF7FEFB07284BD04FF6FF7791
:1018800004AABB464FF0FF3A0192F0B1052825D0DB
:101890004FF6FF739C422DD1A34529D0A7420CBF20
:1018A00005200020B9F1000F01D0A9F800B0B8F16F
:1018B000000F01D0C8F8005006B13780009B0BB173
:1018C000C3F800A007B0BDE8F08F029BAB4224BF75
:1018D000A3461D4653453CBF27469A462046FFF780
:1018E000A2FC019A03AB06210446FFF7C3FBCCE739
:1018F0000520D7E7FCF7A8FE094D0A4902460A4829
:101900002D1AED082D0445F001002346FBF7A1F840
:101910000320D7E70520D5E70820D3E7FE280020DD
:10192000643102008C410200EC30020038B50C4CEE
:101930000C4D00231A4621462846FFF781FF052853
:101940000AD14FF6FF732B8000232360431F5842B8
:101950005841054B187038BD0028F7D10120F8E731
:10196000E8280020FC28002000290020F0B50446CB
:1019700087B08088FFF7C6F923786080083B032B87
:1019800020D8DFE803F002213166637A5BB93F4A71
:10199000116851B1E068814207D113603C4AA188C7
:1019A0001180E3600EE0012B0CD13A4B1B784BB158
:1019B000374BA2881B889A4204D1237A062B01D187
:1019C000FFF7B4FF20465DE0637A002BFAD12F4A7F
:1019D00011680029F6D0E0688142F3D12E491360E6
:1019E0000A68013A0A60DCE72C4F3B7873B901259D
:1019F000284B1B7833B1264BA2881B889A4201D111
:101A0000FFF794FF002DDDD107B0F0BD4FF6FF705A
:101A1000FFF709FC4FF6FF7398420546E7D1FFF741
:101A200004FCA8420646E2D100251422294601A85A
:101A30003D7001F0C2FA0C2320468DF80430ADF859
:101A40000860ADF80660FFF7CBFE01A8FFF7C8FEFF
:101A5000CEE7124B1A78002AB4D00021142201A834
:101A6000197001F0AAFA0D238DF804304FF6FF73B8
:101A7000ADF80830ADF806302046A3680393FFF7B1
:101A8000AFFE01A8FFF7ACFEBEE700BF04290020AF
:101A9000FC28002000290020E8280020EC28002055
:101AA00038B50C46054608B9002038BD0368002B40
:101AB000FAD040680028F7D0FF29F5D0BFF35F8F38
:101AC000FCF720F80028EFD0E968286801FB040043
